:020000021000EC
:10BC000000400020A5D20100E1D20100E3D20100F2
:10BC10000000000000000000000000000000000024
:10BC2000000000000000000000000000E5D201005C
:10BC30000000000000000000E7D20100E9D201008E
:10BC4000EBD20100EBD2010065E20100EBD2010072
:10BC5000EBD2010000000000EBD20100EBD20100AA
:10BC6000EBD20100EBD2010029D40100EBD201009C
:10BC7000EBD20100EBD20100EBD20100EBD20100CC
:10BC8000EBD20100C9C80100EBD20100EBD20100E8
:10BC900069C90100EBD20100A9C70100EBD2010084
:10BCA000EBD20100EBD20100000000000000000018
:10BCB0000000000000000000000000000000000084
:10BCC00010B5064C2378002B07D1054B002B02D072
:10BCD000044800E000BF0123237010BD2C25002084
:10BCE000000000004CE7010008B5084B002B03D012
:10BCF0000748084900E000BF07480368002B00D14F
:10BD000008BD064B002BFBD09847F9E70000000068
:10BD10004CE701003025002028250020000000000D
:10BD2000164B002B00D1144B9D46402292029A1ACA
:10BD3000924600218B460F461348144A121A02F00D
:10BD400076FC0F4B002B00D098470E4B002B00D0F9
:10BD500098470020002104000D000D48002802D063
:10BD60000C4800E000BF02F033FC2000290001F085
:10BD7000D1F902F017FCC046000008000040002086
:10BD800000000000000000002C2500208C2C00206A
:10BD9000000000000000000072DF704779DF70478C
:10BDA0007DDF704765DF7047F0B50024061C251C59
:10BDB00087B00C9F00933B780391029201933388E4
:10BDC0009D423ADA7368A9005918042205A802F0C6
:10BDD00025FC04AB05A8D91C0022FFF7E3FF0028CF
:10BDE00035D104ABDB78029A934222D162426241A0
:10BDF00002993B78520059188A181F2A1BDC002C24
:10BE000007D169469A1C3A700133009A097BDBB26C
:10BE1000D15404ABDC1C3A78009B05A89A18211C6D
:10BE2000FFF7C0FF002812D1237801243A78D318F5
:10BE30003B700135C3E70C2009E00020844206D0A6
:10BE40003B78019A013B9B1A0199009A535407B021
:10BE5000F0BDF7B5089E171C00960222051C1C1C9D
:10BE6000FFF7A2FF002806D10096281C391C1022DB
:10BE7000231CFFF799FFFEBD0023F0B51370037874
:10BE800089B0061C0D1C141C002B03D1B378002BA9
:10BE90004BD029E043780C201D2B00DD61E10E27FB
:10BEA00004ABFF181D23881C391C3B80FFF778FF6B
:10BEB000002800D055E13378022B03D13B880922BA
:10BEC0001D2B08D97378002B03D09BB208221D2BA1
:10BED00001D908223B88DBB2591C29706A7022788C
:10BEE00002329B182370D1E723780C201B2B00DD36
:10BEF00037E10E2704ABFF18381CFFF74FFF00286F
:10BF000000D02EE123785A1C22700322EA542378B1
:10BF10005A1C22701922EA5423783A88EB181A70B6
:10BF2000120A5A70237802332370B388002B1FD073
:10BF3000B2680720002A00D113E122780530911C55
:10BF4000CB181F2B00DD0CE1531C2370B388013389
:10BF5000AB5423785A1C22700122EA542078B2880C
:10BF60002818B16802F05AFBB2882378D3182370DE
:10BF7000F368002B12D01A7823780C201C2B00DDDC
:10BF8000EFE0591C21700221E9542378591C2170DB
:10BF90000A21E9542378591C2170EA54338A002B72
:10BFA00003D1338B002B16D00AE0301C00941030E4
:10BFB000022106222B1CFFF74CFF0028F1D0D0E015
:10BFC000301C00941830032107222B1CFFF741FF7F
:10BFD000002800D0C5E0338C002B0AD0301C009420
:10BFE0002030142115222B1CFFF733FF002800D02E
:10BFF000B7E0B36A002B49D022780C2004920632B5
:10C000001F2A00D9ADE019880538052900D8A8E015
:10C01000554A564F8A1892B2BA4200D8A1E05A88BF
:10C020000392052A00D89CE04F4FBC4694446746D3
:10C0300002AA97819789BC464C4FBC4500D890E036
:10C040004B4FB94205D0039ABA4202D0914200D96F
:10C0500087E0049A04990132227005226A542278FA
:10C06000511C21701221A95422781988AA18117024
:10C07000090A517022780232D2B222705988AB1864
:10C080001970090A5970237802332370F76A002F58
:10C0900029D03A792178931C881CDBB2C3180C2074
:10C0A0001F2B5EDC4B1C033223706A5423785A1C0E
:10C0B0002270FF22EA5423783A88EB181A70120A89
:10C0C0005A7023780233DBB22370BA88002A0AD070
:10C0D000B9680538002944D0E81802F09FFABA88F8
:10C0E0002378D3182370331C343305931B78002B2B
:10C0F00001D1002035E0336B002B31D000230493B5
:10C10000059B049A1B789342F3D90C27049B227851
:10C110005F43336B511CDF193B7921700333AB5400
:10C1200023785A1C22701622EA5423783A88EB1896
:10C130001A70120A5A7020780230C0B22070BA8881
:10C14000002A09D0B96800290AD0281802F066FA36
:10C15000BA882378D3182370049B0133DBB2CEE76F
:10C16000072009B0F0BDC0467FF3FFFF7DF300005C
:10C17000FFFF0000F0B593B06B466A469E1D00239A
:10C18000D71D0D1C33703B7098420BD08388002B59
:10C1900001D1072024E08368002BFAD01B785B07CD
:10C1A000F7D50DE0041C002D03D0AB88002BF0D197
:10C1B0000EE02A1C31783B78201CFFF7EDFD0FE0E4
:10C1C00002A9321CFFF758FE02AC0028EBD007E0B2
:10C1D0003A1C281C0AA9FFF74FFE0AAA0028E9D03A
:10C1E00013B0F0BD75DF704776DF70477ADF7047B8
:10C1F0007BDF704737B5164C164B2088251C9842BC
:10C2000025D0A378227C0133DBB2A3709A4209D3F4
:10C21000211C2031FFF7E6FF002818D0E369002B2E
:10C2200014D114E00023A370237D002B08D03B2100
:10C23000FFF7DAFF002803D0E369002B00D098470E
:10C24000AB69002B03D0002201A80270984737BDCC
:10C2500048250020FFFF000013B5174C638D228C8A
:10C260009A420DD8628C9A420AD3A369002B03D05C
:10C27000012201A80270984700233434237013BDB3
:10C28000231C34331B78002B05D0A369002BF3D07B
:10C2900001A80022EEE7A378002B01D1A16800E0FD
:10C2A000E168206B002200F0A3FD0028E4D0E369E0
:10C2B000002BE0D1E0E7C04648250020021C70B505
:10C2C000144C231D62CA62C362CA62C31268251C71
:10C2D0001A60231C00220168343320351A70281C90
:10C2E000914212D0083202F099F9281CFFF77EFF24
:10C2F00000280DD1201C012300215B42064A30306A
:10C300002380A17000F04EFD02E0FFF771FFEFE720
:10C3100070BDC04648250020F5C1010008B5024B9C
:10C32000186B00F0ADFD08BD4825002010B503884E
:10C33000112B18D002D8102B05D039E0122B2FD09A
:10C34000502B17D034E01B4C8388011C201C0E316D
:10C3500028300822238002F061F90023A370638A49
:10C36000002B25D122E00123124C5B4223800023C5
:10C37000A3700BE00F4CC188628A914218D1C38B25
:10C38000022B15D10130C37FDB070FD4206B00F0E7
:10C3900077FD00280CD0E369002B09D0984707E00F
:10C3A000811D04480822283002F038F9FFF754FFB5
:10C3B00010BDC0464825002073B5154C011C251C36
:10C3C0002035281C082202F029F9281CFFF70EFF4F
:10C3D000251C061E19D1638D228C9A4202D8628CCC
:10C3E0009A420BD22B1C291C01243433288820317B
:10C3F0001C70FFF7F7FEAC70061C06E0A369002B6B
:10C4000003D0012201A802709847301C76BDC046B7
:10C41000482500200B7803704B784370022070474A
:10C4200038B5041C081C0D1C02F009F96560208059
:10C4300038BD0000A0DF7047A2DF7047F0B591B0B3
:10C4400001900F1C151C1C1C002904D1081C1B4A40
:10C450006D2101F05FF8002D04D1281C6E21174AD0
:10C4600001F058F809AE301C00211C2202F0DFF860
:10C47000012202A98A710A1C694602238988337045
:10C480009180227802A90A70627804AC4A708B709D
:10C49000201C0021142202F0CAF803AB049302AB63
:10C4A0006360074B311C1888221C169B2581A581CF
:10C4B0002761FFF7C1FF11B0F0BDC04668E601007B
:10C4C00080250020F0B5041C0120604D87B0604B32
:10C4D00003A92A1C88700B80FFF7ACFF002800D04E
:10C4E000B1E02288002A03D12289002A17D00AE06D
:10C4F000AB1C0093231C574861683C33FFF79EFF39
:10C500000028F1D09FE02B1C0A330093231C5248D3
:10C51000E1683C33FFF792FF002800D093E0228AC5
:10C52000002A0BD02B1C12330093231C4B4861694B
:10C530003C33FFF783FF002800D084E0228B002AE1
:10C540000AD02B1C1A330093231C4548E1693C3365
:10C55000FFF774FF002876D1228C002A0AD02B1C0A
:10C5600022330093231C3F48616A3C33FFF766FF88
:10C57000002868D1228D002A0AD02B1C2A33009370
:10C58000231C3948E16A3C33FFF758FF00285AD191
:10C59000266B002E27D03068FF22031C12021340A6
:10C5A00004A91B0A77684B70FF23021C1B041A4066
:10C5B0000870120C000E8A70C8700F71B068FF22EC
:10C5C00003401B0CCB712B1C12020240120A3233A7
:10C5D00048718A710093231C244808223C33FFF7DA
:10C5E0002DFF00282FD1636B002B03D1A06B0028F7
:10C5F0000DD128E0291C3A311A7900911968231CC1
:10C600001B483C33FFF71AFF0028EFD01BE00378EC
:10C6100004A90B70438842354B701B0A8B708388CA
:10C620000722CB701B0A0B71C38812484B711B0A7F
:10C630008B71231C00953C33FFF700FF031C002087
:10C64000834200D0181C07B0F0BDC04680250020F2
:10C650000A180000292A0000242A0000252A0000C8
:10C66000272A0000262A0000282A0000232A00008A
:10C670002A2A0000502A000026DF704751DF704749
:10C6800010DF704711DF704761DF704708B5081C85
:10C69000111C00F040FF08BDF0B5234D85B02B788C
:10C6A000002B3ED06E68AC6873425E4163425C41D1
:10C6B000F6B2E4B2002E32D103A8FFF7DFFF05285F
:10C6C0000AD0002804D06921184A00F023FF04E0B2
:10C6D00003986B68984700E00126002C1CD1AB89B9
:10C6E00003A90B802B690124181C0193FFF7CCFFD1
:10C6F000071E052F0BD0002805D080210B4A00F023
:10C7000009FF002403E00198AB6898473C1C002E09
:10C71000D0D0002CCED004E0002E02D1CAE7002CED
:10C72000DDD005B0F0BDC046CC2500209DE601005F
:10C7300038B5051C0720002910D08C070ED1084CF5
:10C74000281C21610749A2816361FFF799FF002836
:10C7500004D1012316302370FFF78EFF38BDC04689
:10C76000CC2500208DC6010008B5FFF78BFF031C08
:10C770005A1E9341014ADBB2137008BDCC2500203C
:10C780000E23002802D0024B98600023181C70472B
:10C79000CC2500200E23002802D0024B5860002335
:10C7A000181C7047CC25002008B5084B5B69002B8E
:10C7B00008D09847002807D09921054A490000F081
:10C7C000A9FE01E0FFF768FF08BDC046CC250020A8
:10C7D0009DE6010010B54378827801339A1A041C53
:10C7E000501E82415242134022780020934205D0CD
:10C7F0000B601823607843436068C01810BD164B67
:10C8000002205968C905C90D24D01039CBB25AB2DB
:10C81000002A0BDA0F221A40083AC24082400F4920
:10C82000521803210B4052688B4007E092080C4BD2
:10C83000C0329200D25803230B40DB00DA40D3B25F
:10C840009B09DBB20020012B04D0033B5A425A4122
:10C850000230801A7047C04600ED00E018ED00E09D
:10C8600000E100E02F23C046C046C046C046C04697
:10C87000C046C046C046C046C046C046C046C04688
:10C88000C046013B002BEED17047802238B50B4BE0
:10C890009202DA678023D2220125094C5B029200C2
:10C8A000A350403AA3506560FFF7DCFFA560002568
:10C8B000044C2560FFF7D6FF257138BD04E100E088
:10C8C00000100140E4250020F8B50025204B214C44
:10C8D0005D649D64DD641D655D609D60A7687B1C73
:10C8E00035D01D4B1D4AD6582368F61A3602360A33
:10C8F00024235F43E368DB195A68964215D3B61ABE
:10C90000AD1822691F6A002A0AD09869D969904730
:10C91000002808D06421124AFF3100F0FBFD02E03C
:10C920009A69D86990477B1CE2D1227D637D93424E
:10C9300005D10133DBB2022B00D1002363758022C5
:10C94000637D52039B00E418064BA5615A60F8BD55
:10C95000FC100140E4250020040500000010014007
:10C96000D6E60100FCE100E0F0B5AE4B89B01A68F4
:10C97000597D04921A7D914211D00132D2B2022A1D
:10C9800000D100221A751A7D049992009A189269B2
:10C99000009252181202120A1A60012201E00022CB
:10C9A000009205929A680133DB7F06920193013B66
:10C9B000DBB20393039B9B4AFF2B61D0039B526A1C
:10C9C000DB00D3181C780293029B5B78A34255D0FE
:10C9D0001822029B62435B68013407939A18029BFA
:10C9E000E4B29B781B1B591E8B415B421C401378A1
:10C9F000022B05D0032BE7D18A4B9A68D96831E026
:10CA000024255268874B5543DF6894467D192A7D5B
:10CA1000002AD9D09868011C061C4B1C1FD0242367
:10CA2000614504D04B43FA180E1C116AF5E78E429B
:10CA300008D14343FB181B6A7A4A9360013301D142
:10CA4000FFF723FF24235E43296ABE196A68316217
:10CA5000481C04D04B43FF187B689B187B60002365
:10CA60002B75B1E7531C06D0242353430022CB1867
:10CA70001A751A6AF6E76B4B9A60A5E7039B96E76F
:10CA800005999368002909D1069A9B1A5A1E934169
:10CA9000DBB2029301235B429C462DE0D568012264
:10CAA0005242944600205A1C22D024225A43AA18EB
:10CAB0005168009C8C4205D25A48091B8360516022
:10CAC000012318E0009C4018641A002100941469A6
:10CAD00051601175166A8C4208D00499D4604118CF
:10CAE0000902090A916061469C461162331CDAE72B
:10CAF0004C4A9360023302934A4B9A6803925A6AF3
:10CB00000692DA681B6800920593039B019A013A2A
:10CB1000D2B20192FF2A00D188E0019A0699D20090
:10CB20008A186146013108D06046242141430098AB
:10CB300064464118086A844624E011785078884297
:10CB4000E4D0182048435468013120189478C9B2C1
:10CB500011708C4201D100211170017844681D1CB4
:10CB600001295DD123316143009D69180E7D1D1C93
:10CB7000002E55D185688D60C568CD6005690D6151
:10CB80004069C8618868059D274F451B2D022D0A05
:10CB9000CE68BD4202D8AD194D600AE0059D281A45
:10CBA0000002000A864202D9361A4E6001E00020D7
:10CBB000486000208860C86001300875023808624B
:10CBC0002530061C66430099251C8E19591C27D058
:10CBD0005843009D716828184568A94204D8691A0D
:10CBE0004160251C33621BE01D1C04932420684314
:10CBF000009F38184768B94206D9006AC91B0495D6
:10CC0000471C05D0051CF1E77F1A4760281C049DCE
:10CC1000716024214D43009930624D192C621D1C16
:10CC20002B1C7EE7E4250020FEFF7F00284D039AA1
:10CC3000AB60934202D1029A002A46D05A1C42D0DD
:10CC400024225343EA68234CD3185B68224A00939A
:10CC5000A6582B6803920193F31A1B021B0A033395
:10CC600002932B79002B12D18023C13A5B02FF3A49
:10CC7000A350403AA350C02180220127174B9202B3
:10CC800049005A501A602760FFF7ECFD2F71029B94
:10CC9000009A934200D2131C019A9B18A8221B02EF
:10CCA0001B0AD200A350039AA258921B1202120A26
:10CCB0009E1B36020332360AB24206D98022084B46
:10CCC00092025A6001E0FFF7E0FD09B0F0BDC046F6
:10CCD000E4250020001001400405000000E100E010
:10CCE000FCE100E0F8B51E1C051C0F1C141C0720FD
:10CCF000B3074BD1002E49D0FFF7C7FD244A069B4E
:10CD000024211361131C28331F704F43F1190F1C8A
:10CD1000331CD660994204D0002018701875243353
:10CD2000F8E70320531CD8771823516218310E1CE2
:10CD300063430020796038707870BC700837C91878
:10CD4000B742F6D101238024C021C526FF275B42CC
:10CD50009360104B6403490010755075B6005C5029
:10CD60009959B9433F3F39439951A1211C600A4C5D
:10CD7000C9006550C425AD005E5908493140C02640
:10CD8000360231435951064BE3581360F8BDC04693
:10CD9000E425002000E100E000100140FF00FFFF5B
:10CDA00004050000114BF0B5DC68061C0820002CBF
:10CDB0001AD00138002A17D0002E15D000252833AC
:10CDC0001F78BD420FDA201C2434231C243B1B781F
:10CDD000002B06D101244170047082613560181C5B
:10CDE00002E00135EDE70420F0BDC046E425002057
:10CDF000F0B51F4C061CE56885B00820002D34D026
:10CE0000231C28331B7801389E422ED204292CD9AA
:10CE100024237343EB181D780130012D25D15B7855
:10CE20000027012B00D10F1C01920D1CFFF7E7FC1E
:10CE3000646AC0002418201C03A9FFF7CBFC031C64
:10CE40000420002B11D001220A491A700A4A5E60A0
:10CE50008A5800209A60019ADD605A6180221F6121
:10CE6000039B52036370054B5A6005B0F0BDC0468A
:10CE7000E42500200010014004050000FCE100E072
:10CE800073B5154E0823F268002A22D0331C2833CC
:10CE90001978072388421CD21D3343439A5C082328
:10CEA000012A16D1051CFFF7AAFC746AC0002418D9
:10CEB000201C01A9FFF78EFC0423002809D0802242
:10CEC000023B0370019B45606370044B52035A6040
:10CED0000023181C76BDC046E4250020FCE100E0DC
:10CEE00013B50F4C0823E268002A16D0FFF787FC21
:10CEF000646AC0002418201C01A9FFF76BFC0423FE
:10CF000000280AD08022013B0370043B4360019B50
:10CF100052036370034B5A600023181C16BDC046B1
:10CF2000E4250020FCE100E0024A034BD3580360F3
:10CF3000002070470010014004050000401A000264
:10CF4000000A10600020704718DF70472DDF70471F
:10CF500013DF7047B024054B6402201C1D68FFF7E7
:10CF6000F7FF236883F30888A847FEE70460010001
:10CF7000F0B58DB000F01AFA00F04EFA5F4D019056
:10CF80002A782C1C002A0DD1A023A221DB05C90080
:10CF90005958490006D5E721C9005A5001F08AF9CD
:10CFA00001232B706B78012B1FD000F087FE061E2B
:10CFB0001BD00278012A0AD94188514B0B405149B4
:10CFC0008B4204D16B78002B01D102336B706B78EC
:10CFD000022B07D1A01CB11C01F020FB3378E21C0E
:10CFE000013BD377301C00F07BFE6B78022B14D012
:10CFF00000F05AFC002810D001236B7000F05AFC9E
:10D00000051CA01C2A78A91C01F008FB2B78E21C47
:10D01000013B281CD37700F053FCA71C0334E67FA8
:10D02000FF2E25D0002303AD2B70013602AB981DD7
:10D03000391C321C01F0F2FA381C6E7000F024FF2B
:10D04000002815D1281C01F049FAFF23281CE3779A
:10D0500001F0DAF900280BD02B78002B08D16D787D
:10D0600002AB2A1C381C991D013D01F0D7FAE57767
:10D07000224BDF1CFD7F9E1C1C1CFF2D23D05B78E8
:10D08000022B10D100F054FE051E1CD0FA7F311C7B
:10D090000132023001F0C2FAFB7F281C01332B70F1
:10D0A00000F056FE0FE0012B0DD1271C201C01358E
:10D0B00024372630311C2A1C01F0B0FA631D381CBD
:10D0C000DD7700F003FCFF230334E3770E4B5A6C4B
:10D0D000002A04D000225A640C4B01321A60019BD2
:10D0E000002B00D146E780212020094AC9058B5832
:10D0F00003438B50FFF72AFFFEE7C04610260020AF
:10D10000FFFEFFFFFFFE0000FC90004000600040BB
:10D110001C050000F7B55048FFF716FFDE2040025F
:10D12000FFF716FFA02301224C4CDB051A51802289
:10D1300086214B4BD205D0581E1C0140101C822961
:10D1400009D0D3585B0606D4B0235B021B680133B9
:10D1500001D0FFF7FFFE8359424D5B060BD52F1C14
:10D16000B1235037381C404904223B7101F056FA74
:10D17000381C00F01BFE80226021D205935900204C
:10D180008B439351A023394ADB055F3999508021A5
:10D19000A1220903D20099502B1C0090583304217E
:10D1A0000622FFF79FFD002803D08221304A00F0BD
:10D1B000B1F900F0B1F900F043F9002000F0E4F813
:10D1C000A8232C492C4ADB00CA502C4A2C4BA22500
:10D1D000CA50A0230122DB051A5180242948A4014A
:10D1E0001C50294E294CED006651C046C046C04631
:10D1F000274E22606651C046C046C0460A60254997
:10D2000020245A50A121C9005C50E324E4001A51A3
:10D2100040241C50204C1A5180241C50E524E4006A
:10D220001A518024E4005C501C4C1A518024A40341
:10D230001C501B481A50802080055850E720C00021
:10D240001A508022D2015A50EF220420D200985066
:10D250005C50FFF78DFEC04604200020340700001C
:10D260001C05000010260020A40000104C07000040
:10D2700007E701000090004048E8010090D003005B
:10D28000440500000C050000031F02000060004080
:10D29000030D0300140700001C07000054070000E2
:10D2A000740700000848026803210A430260074926
:10D2B000074A084B9B1A03DD043BC858D050FBDCDF
:10D2C00005488047054800472405004058E701000D
:10D2D000002000202C250020FDD2010021BD0100EE
:10D2E000FEE7FEE7FEE7FEE7FEE7FEE7014A024B48
:10D2F0001A6070470024F400142000201B4A10B567
:10D300001378111C012B19D1194B1B681B0715D160
:10D31000184BE0241A68F023101C184022420BD14D
:10D32000154A12681A4209D1144A154B1A60802214
:10D33000144B12021A6001E03028F1D00B68DBB206
:10D34000012B12D10A4A126812070ED1F021094AA4
:10D3500012680A40402A08D1074A12680A4204D1DA
:10D36000C1228021D200C9058B5010BDE00F00F012
:10D37000E40F00F0E80F00F0EC0F00F0DFFF07C053
:10D3800004050040186C0040A0220C2110B5C024F8
:10D39000044BD205D150D158A4022143D150024BA5
:10D3A000187010BD440700001829002070B5194CF2
:10D3B000666800F063F8251C864229D000F05EF80C
:10D3C000A022A223217AD205DB006060D358002975
:10D3D00007D19B031CD40123237200F04FF8E060B7
:10D3E00016E09B0314D50023237200F047F8E3688E
:10D3F000C01A2C23FF33984208D800F03FF8E368A6
:10D40000C01A012802D90123237001E002232B70E6
:10D4100070BDC046182900200022024B18781A70EF
:10D420007047C04618290020034A1368013313606F
:10D430000022024B5A64704728290020FCA00040BB
:10D44000A221012204200B4BC900DA605850FA20B7
:10D450003031800058508021802089005A50053199
:10D460004002FF31585080200349C00008601A6014
:10D470007047C04600A0004000E100E0014B186882
:10D480007047C0462829002073DF70477CDF704753
:10D490007FDF704763DF7047FEE708B50348FFF79B
:10D4A000F3FF002800D0FEE708BDC0462C2900206D
:10D4B00010B5041C00F0CEFC201C00F06FFE10BD67
:10D4C00010B5041C00F00EF9201CFEF72FFF208879
:10D4D0001038092819D801F05BF805161809181832
:10D4E00018181813A288094B1A800EE0074B084A37
:10D4F000188800211432FFF7CBFF002805D0FEE783
:10D50000A379002B01D1FFF7C8FF10BD1820002020
:10D510002C290020FEE7FEE70020F0B5624999B013
:10D520001C315022031CFFF703F9071E00D0FEE751
:10D53000012604AD2B7808AC3343281C2B7000F077
:10D54000C9F8201C00F0C0F86378381C9B19211C16
:10D55000637000F0B7F85548FFF712F9002800D0C3
:10D56000FEE75348FFF716F9002800D0FEE7102722
:10D570003B1C281C33434F493A1C2B70FFF786FF96
:10D58000002800D0FEE700F0A1F8002800D0FEE758
:10D590002023638071336060FF33201C2780E38089
:10D5A00000F096F80190002800D0FEE7062302AABA
:10D5B000D37141490422281C01F030F80199382226
:10D5C000201C01F034F80223237002AB07330199C9
:10D5D000201CA670A680A36026826561FEF7CAFDA6
:10D5E000011E00D0FEE714222F4801F020F8C823C6
:10D5F0002D4A5B001382304B281C191D3A1C01F088
:10D600000DF802AB281CD91DFFF744FF051E00D002
:10D61000FEE702ABD87900F0C5F84022291C201C97
:10D6200001F005F8201C2549FEF7FAFE0F2117AA84
:10D630001378201C8B4333430B403B43137055231B
:10D64000002202A95B181A70FEF73CFF011E00D0F1
:10D65000FEE7201C1C2200F0EAFFA0239B0263606F
:10D66000A36003232373164B201C2674A361FEF7CB
:10D6700025FE002800D0FEE71E2301220A498B82E6
:10D680008B7D1343E0321340D53A13431432934356
:10D690008B750723CB7509330B76FFF7FEFE00F081
:10D6A000E3FB19B0F0BDC0462C290020C1D4010015
:10D6B000B1D4010026E7010012E7010037E70100BD
:10D6C00099D4010070DF704771DF704778DF7047D1
:10D6D0007ADF704760DF7047A0DF7047A2DF7047D6
:10D6E000A6DF704770B50388112B05D0502B08D0EA
:10D6F000102B51D1828801E001225242274B1A801F
:10D700004AE0274CC2882388051C861D9A420DD109
:10D71000237A002B0AD1201C291C0E30328B203199
:10D7200000F07CFF338B237301232372EA88238F5D
:10D730009A4231D1B27E194851B2602300290FDAE2
:10D74000134083701F23201C291C1A4001322264BD
:10D7500044302131132A0FDD132200F05FFF1BE05C
:10D7600081781340994217D1FF23291C8370201C14
:10D77000226C5730133A213100F050FF237A002BEE
:10D780000AD1201C211C256C0E3044312A1C00F0CB
:10D7900045FF01232573237270BDC0461C20002065
:10D7A00098290020FF23F0B587B002AA5370384BA8
:10D7B00004A90B806B4601901B79012002328B700B
:10D7C000FFF78AFF002860D10127102303AD3B43F8
:10D7D0002B7010233B436B700223AB706B462D4CB8
:10D7E0001B79221C05AEB3702B4B211D338002AB7D
:10D7F000DB19236302AB58882032284BA5612662CF
:10D800002785FFF76BFF00283FD16B46211C1B7952
:10D810002880B370224BA870338002ABDB1963649D
:10D8200002ABA06158881D4B483138331D4A6663EE
:10D83000A787FFF753FF002827D10F2283B2C0B27A
:10D84000904338431040D21910431B0A013A9343C6
:10D850003B431340D21913436B700223AB706B46EA
:10D860001B79211CB37081239B00338002ABDB1931
:10D87000636402AB28705888084B64316433094AEA
:10D88000A5676663A787FFF729FF07B0F0BDC0460D
:10D89000010200001C200020020200009829002044
:10D8A0000302000050200020014B187A7047C04648
:10D8B0009829002001480C307047C0469829002064
:10D8C0000022014B1A72704798290020F0B58BB0E6
:10D8D00004AA941D384A0378128823800092009984
:10D8E000364A914266D0142B01D91423238006AE08
:10D8F000102201900021301C00F099FE0123304DD0
:10D90000B3702B8800983380019B311C9F1CF760FB
:10D91000B460FFF7E5FE019B14221B78132B00D89F
:10D920005A1CE96E013B02911F210B409F390B43AA
:10D93000029906AE480160210840224903430B705A
:10D94000391C0127039020482280643500F066FED0
:10D9500010220021301C00F06AFE2B8800983380D2
:10D96000184B311CF360B770B460FFF7B9FE019B30
:10D970001A78132A1AD96946124B097B123A197080
:10D98000019992B215311048228000F047FE002123
:10D99000301C102200F04BFE2B8800983380094B7E
:10D9A000311CB770F360B460FFF79AFE029B044A23
:10D9B0000133D3660BB0F0BD1C200020FFFF000038
:10D9C00098290020082A0020092A00200A4B0B4A27
:10D9D0000240184012090001094B104303409A0805
:10D9E000084B03409B0013430748084A1840134064
:10D9F0005B084000184370470F0F0F0FF0F0F0F076
:10DA0000CCCCCCCC3333333355555555AAAAAAAA1E
:10DA1000F7B54C494C4B08691A1C002800D18FE01F
:10DA200000200861494908780D1C002873D001289E
:10DA300000D085E08021C9005958002901D19860A3
:10DA40007EE0A923DB00D1582C236F687B43EB18C1
:10DA5000D9623F497C1C51588C4619633D490C40A2
:10DA6000019104D50423013C5B421C4301343A4B31
:10DA7000996B8C4202D10123936061E02C217943A0
:10DA800069184E7AD86B7607B60F0021B04205D1DF
:10DA90006046196C091A48424841C1B2DE632C261F
:10DAA0007743EF19386B2D4E1864002902D05B6C58
:10DAB000935121E0191C586C48316C6088420DD09C
:10DAC000596F986F884209D001980131014004D5FF
:10DAD000042001394042014301315967596F986F61
:10DAE000814205D02C201C1C41437C34611801E08C
:10DAF000191C483191515964802308209B00D1584A
:10DB00008143D150D15804380143D15000232B70A8
:10DB10000133136114E02C22081C4C680830624366
:10DB200082180E4804241A50802292009858A0436C
:10DB30009850985824192043985001220A701A616D
:10DB4000F7BDC046FC100040001000401C2A002019
:10DB50000C040000030000809C2A00200405000043
:10DB6000F8B50125022200272D4C2E4B2E4EE550F4
:10DB70002E4B2F481A602F4BE750043BE7500833D9
:10DB8000E55033791843FFF721FF2B4B2B4AE05028
:10DB90000433E25073783178B0781B020B430004F1
:10DBA0001A1C031CF078134300061843FFF70EFFFE
:10DBB000234B244AE0500433E250234B234AE750DE
:10DBC0000433E550224B1021E250224A0433E25044
:10DBD0000222214BE250214A214BE250214A043BD0
:10DBE000E250C12308229B00E250053BFF3BE55079
:10DBF000E2580A43E250E2580C390A43E250E25834
:10DC00002A43E250184AD53B111C15705268FF3B5D
:10DC100053430831154ACB18A3506560F8BDC04680
:10DC200000100040FC0F0000A420002000E100E0F4
:10DC300000C2C3C40C0500002405000013E363A365
:10DC40001C050000434343002C05000006000300B0
:10DC5000140500002000040134050000FFFF00004F
:10DC60003C050000211001001C2A002004050000D2
:10DC70000222084B0821DA67C222074B9200995012
:10DC80000022F931FF315A500121196103495A50DC
:10DC90007047C04604E100E000100040FC0F0000A7
:10DCA000044B054A5B68906B181A431E9841C0B23A
:10DCB0007047C0461C2A00209C2A002008B5FFF7A8
:10DCC000EFFF031E06D02C20034B9B6B43430348FE
:10DCD0000830C01808BDC0469C2A00201C2A00201D
:10DCE00006498B6B5A1C064B134004D50422013B9A
:10DCF0005242134301338B637047C0469C2A002075
:10DD000003000080084A936F581C084B184004D544
:10DD1000042301385B4218430130536FC01A431E7D
:10DD20009841C0B27047C0469C2A00200300008082
:10DD300008B5FFF7E7FF031E06D02C20034B1A1C83
:10DD40009B6F7C325843101808BDC0469C2A0020A7
:10DD500006498B6F5A1C064B134004D50422013B25
:10DD60005242134301338B677047C0469C2A002000
:10DD700003000080012807D0002803D0022808D122
:10DD8000012102E0022100E00021A223014ADB0080
:10DD9000D1507047001000407D2803D8A123024ACB
:10DDA000DB00D0507047C0460010004008B5011C91
:10DDB0000522024800F032FC08BDC046A420002025
:10DDC0004EDF704750DF7047002310B51C4C2370A6
:10DDD000042832D800F0DCFB03181423290080212A
:10DDE000C122184B490292009950A822C821D200A2
:10DDF00099508022144B52001A60FFF7B1FE01E0E7
:10DE0000FFF706FE002308E0104A536C012B14D1E3
:10DE100000215164FA229200626023700DE0FFF746
:10DE200027FF0B4B63600323F7E7A822FA2005497D
:10DE3000D2008B5880001B188B50201C10BDC04690
:10DE4000C82B00200080004000E100E0FC80004082
:10DE5000AC200020043808B5012802D80148FFF79B
:10DE6000B1FF08BDAC20002008B50348FFF7A8FFAC
:10DE70000248FFF7A7FF08BDC9DD0100AC20002064
:10DE800021DF704720DF7047F8B5451CEB7F041C8D
:10DE9000023BDBB2FC2B00D92FE10378FF2B00D033
:10DEA0002BE14378FE2B00D027E18678102E13D18A
:10DEB0000021FA3B0371033B43716E33C371173B7F
:10DEC0004372C1708171017281720C220B3000F0BB
:10DED000AEFBE675162395E0142E1AD1C61D002060
:10DEE000EB7F063B984200D307E12379E1781B02E0
:10DEF000A2790B4361799B0212020A43C3189B1853
:10DF00009C4A934200DDF8E0315C9B4A0130D154D9
:10DF1000E6E7152E16D1C61D00202379E1781B02F5
:10DF2000A2790B4361799B0212020A43C3189B1822
:10DF3000904A93421DDC904AD35C33540130192837
:10DF4000EBD116E01C2E18D1C61D00202379E178F4
:10DF50001B02A2790B4361799B0212020A43C31888
:10DF60009B18864A934204DC1B78335401301928ED
:10DF7000ECD1EB7FC018E877DCE0182E37D1804E6B
:10DF80003378002B00D0B8E0C71CFB78B9781B02AF
:10DF900019430B1C583B162B0BD87B793A791B0283
:10DFA0001343CB186F2B04DC7B78C2781B0213431E
:10DFB00004D00023E37001337B709CE0062271489B
:10DFC000391C00F02BFB6F4A6E4BD0789B78000217
:10DFD00018436C4B72785B78B0601B021343F3609C
:10DFE00001233370FFF74EFF0028E2D185E0FF2EBA
:10DFF0000AD143700670867063490330062200F030
:10E000000DFB0823EB7795E0F02E1FD1FFF736FAD2
:10E01000061CFFF733FA801B6328FADD8022E97FB4
:10E02000D2055A4B022905D9E178002902D1D158ED
:10E03000402001E02020D1580143D150BFF34F8F41
:10E04000534A544BDA60BFF34F8FFEE7162E54D17C
:10E05000DC267602301C192100F06AFA327801239E
:10E06000CF2A43D1B269110A327F12060A43904285
:10E070003CD17368327A1B0A12061A430DD0F8207D
:10E080003179F3780902194389028E18022340027C
:10E0900086422BD84048814228DDDC2040020369BB
:10E0A000017D1B0A090619435FD0F826C37B007C5B
:10E0B000760200021843800247180323B74215D89E
:10E0C000354EB04212DD002A3ED0DC26760233689F
:10E0D000111C1802000C800200F02AFAB368327B8F
:10E0E0001B0A12061A430423904225D0DAB2227189
:10E0F00053425341E370042384E7EB7F0020FF2B5E
:10E1000036D01F4B1A78032A0AD00020042A2FD1B8
:10E110001821A170197CE07021711870EA7709E06C
:10E1200018220120A27004210022E07022711A70CE
:10E13000E9771DE001201BE03369317D1B0A0906E8
:10E14000194301D10023D1E7DC267602F3681802D7
:10E15000000C800200F0ECF973691A0A337E1B068A
:10E1600013439842EED00523C0E7002AEAD0ACE77B
:10E17000F8BDC046FF030000BC200020FFBB01002B
:10E18000D02B0020D12B0020A40000101C05000083
:10E190000400FA0500ED00E0FF0F000070B5022852
:10E1A0004CD12E4B1A78012A02D0022A30D053E0EB
:10E1B0009A68591C01329A60CC788D7824022C43DD
:10E1C0004D790E792D0235436519AA4209DA101CE2
:10E1D000FFF758FE00283FD00222204B1A61921808
:10E1E00014E049785A780902114318709C60D9608C
:10E1F000A00280221A4B090359185200FFF740FE73
:10E20000002829D00322154B1A6101321A7023E02D
:10E210009A68DC78501CDA689860511C1A79D960C9
:10E2200012022243161C9A795C7912022243B21818
:10E23000904201DA8002DCE70322E7E703280BD1F2
:10E24000064B1A78012A05D0022A05D19A68D968A6
:10E250009002CEE79868BBE770BDC046D02B002087
:10E26000BC200020F0B500247F250F4B0F4A186812
:10E27000D460411CCA0F8D426241A3255F6852429F
:10E280000A400B4EED00BA4205D172591A72DA6893
:10E290000132DA6006E072591818196002747F2999
:10E2A00000DD1C60F0BDC046E42B0020FC200040D7
:10E2B00000200040A0221A49D2055058194B30B511
:10E2C00003405350A3248023A1211D25C900E4004D
:10E2D0009B05135114485350144B1D50802514486E
:10E2E000ED0515501E2513481D508020C00110510A
:10E2F00050500E2280205A500F490D3A5A500F4963
:10E3000040055850A0200421C00019500C489A60C4
:10E310000160C120800019501A600A4B1A7430BD88
:10E3200074070000FFF8FFFF0C050000002000400C
:10E330001C050000140500006C0500002405000009
:10E3400000E100E0642C0020064B1B7C002B08D071
:10E35000054B064AD050064B1A6A002AFBD0002211
:10E360001A627047642C00201C0500000020004049
:10E37000FC200040064B10B51B7C041C002B06D073
:10E380002078002803D00134FFF7DEFFF8E710BD46
:10E39000642C002038B5074B1B7C002B08D0041CD4
:10E3A0004518AC4204D02078FFF7CEFF0134F8E7DF
:10E3B00038BDC046642C0020054B187C002806D0D0
:10E3C000044A13685068181A431E9841C0B2704737
:10E3D000642C0020E42B00200020094B1B7C83428E
:10E3E0000CD0084B5A681968914207D0511C9A18F2
:10E3F0005960107C7F2901DD00225A607047C046B9
:10E40000642C0020E42B002038B50023324C051C7E
:10E4100022784370072A01D123706360FFF7CCFF95
:10E42000002852D02378072B4FD0FFF7D5FF031CCD
:10E4300020780628F2D800F0ABF80409161124372A
:10E440003E00BC3B594259412170E7E7CF3B58425F
:10E450005841032243421A402270DFE72B70237297
:10E46000637202232DE0227A617A9A18D2B2227264
:10E47000521862720022E3606260934212D0042359
:10E480001FE062681F2A08DCA9188B70217A5B18CC
:10E49000617ADBB223725B186372E36801326260F7
:10E4A0009A42BBDB05230CE0227A9A4201D1062373
:10E4B00007E0002305E0627A9A4204D1237B6B7067
:10E4C00007232370AAE70023A6E7207807384242F3
:10E4D0004241D0B238BDC0467C2C0020F8B5061CA5
:10E4E000371C1248FFF746FF3078FFF72DFF707892
:10E4F0003478FFF729FF75786519EDB22C19E4B26D
:10E500007378BA1B01379A4208DA7878FFF71CFF54
:10E510007B78ED18EDB22C19E4B2F1E7281CFFF777
:10E5200013FF201CFFF710FF0120F8BD40E701009A
:10E530000123F0B5041C5B42221A8A421ADA07252D
:10E54000002227780126374201D0AE4032437F08AF
:10E55000013DF7D21206534008225D00002B02DA7B
:10E560000A4B6B4000E02B1C013AD2B2002AF4D1D6
:10E570000134E1E71F22002001210B4201D091402C
:10E5800008435B08013AF7D2C043F0BDB71DC10490
:10E5900002B4714649084900095C49008E4402BC36
:10E5A0007047C046084B10B5041C002B02D0002158
:10E5B00000E000BF054B1868836A002B00D0984725
:10E5C000201C00F043F8C0460000000048E70100AE
:10E5D0000E4B70B500251E1C0D4CE41AA410A5426C
:10E5E00004D0AB00F35898470135F8E700F030F855
:10E5F000084B00251E1C084CE41AA410A54204D0A8
:10E60000AB00F35898470135F8E770BD202500208E
:10E61000202500202025002024250020002310B5DF
:10E62000934203D0CC5CC4540133F9E710BD031C02
:10E630008218934202D019700133FAE77047002321
:10E64000C25C0133002AFBD1581E7047FEE7C0466A
:10E65000F8B5C046F8BC08BC9E467047F8B5C04641
:10E66000F8BC08BC9E4670476E726635315F7364B5
:10E670006B2F6E726635313832322F536F7572637D
:10E68000652F626C652F626C655F73657276696376
:10E6900065732F626C655F6469732E63006E7266CA
:10E6A00035315F73646B2F6E726635313832322FBD
:10E6B000536F757263652F73645F636F6D6D6F6EFB
:10E6C0002F736F66746465766963655F68616E64F5
:10E6D0006C65722E63006E726635315F73646B2FEA
:10E6E0006E726635313832322F536F757263652F13
:10E6F0006170705F636F6D6D6F6E2F6170705F74AE
:10E70000696D65722E63007372632F6D61696E2E81
:10E7100063000A180100089A0AC0B7437B949E4F11
:10E720007F1C000000004372617A79666C69652085
:10E730004C6F61646572004269746372617A65004E
:10E74000BCCF004300000000BC24002000000000FB
:08E75000D0D5FF7F010000009D
:10E7580000000000020000000000000000000000AF
:10E76800000000000024F400FFFF0000FFFFFF008E
:10E778001A00000000000000000000000000000077
:10E788000000000000000000000000000000000081
:10E798009F20002001000000200000000000000071
:10E7A800000000009C200020010000002000000064
:10E7B800000000000C000000000000000000000045
:10E7C8000000000000000000000000000000000041
:10E7D800120000000000000000000000000000001F
:10E7E80000000000000000000000000011110311EB
:10E7F80011030000E7E7E7E7E7000000000000007A
:10E8080000010000E803000040420F004200000041
:10E8180000000000000000000000000000000000F0
:10E8280000000000000000000000000000000000E0
:10E8380000000000000000000000000000000000D0
:10E8480000000000000000000000000000000000C0
:10EC280000000000000000000000000043E70100B1
:10EC380000000000000000000000000000000000CC
:10EC480000000000000000000000000000000000BC
:10EC580000000000000000000000000000000000AC
:10EC6800000000000000000000000000BC2400209C
:0CEC7800E9BC0100C1BC0100000000006C
:040000031000D2A572
:00000001FF
