:020000021000EC
:10BC000000400020A5D20100E1D20100E3D20100F2
:10BC10000000000000000000000000000000000024
:10BC2000000000000000000000000000E5D201005C
:10BC30000000000000000000E7D20100E9D201008E
:10BC4000EBD20100EBD201005DE20100EBD201007A
:10BC5000EBD2010000000000EBD20100EBD20100AA
:10BC6000EBD20100EBD201002DD40100EBD2010098
:10BC7000EBD20100EBD20100EBD20100EBD20100CC
:10BC8000EBD20100B5C80100EBD20100EBD20100FC
:10BC900059C90100EBD201008DC70100EBD20100B0
:10BCA000EBD20100EBD20100000000000000000018
:10BCB0000000000000000000000000000000000084
:10BCC00010B5064C2378002B07D1054B002B02D072
:10BCD000044800E000BF0123237010BD2C25002084
:10BCE000000000003CE7010008B5084B002B03D022
:10BCF0000748084900E000BF07480368002B03D04D
:10BD0000064B002B00D0984708BDC046000000003D
:10BD10003CE701003025002028250020000000001D
:10BD2000164B002B00D1144B9D46402292029A1ACA
:10BD3000924600218B460F461348144A121A02F00D
:10BD40006EFC0F4B002B00D098470E4B002B00D001
:10BD500098470020002104000D000D48002802D063
:10BD60000C4800E000BF02F02BFC2000290001F08D
:10BD7000D1F902F00FFCC04600000800004000208E
:10BD800000000000000000002C2500208C2C00206A
:10BD9000000000000000000072DF704779DF70478C
:10BDA0007DDF704765DF7047F0B587B00C9F061CDC
:10BDB000387800240391029200930190251C338867
:10BDC0009D4238DA7268A900511805A8042202F0D1
:10BDD0001DFC694605A813310022FFF7E3FF002888
:10BDE00032D16846C37C02998B4220D162426241C3
:10BDF0003B78520059188A181F2A1ADC002C06D1E9
:10BE00009A1C3A7001330398009ADBB2D05400991F
:10BE10006C463A7813348A1805A8211CFFF7C2FF34
:10BE2000002811D13A7823780124D3183B700135CA
:10BE3000C5E70C2008E00020844205D03B78019A39
:10BE4000013B00999B1A8B5407B0F0BDF7B5089ED3
:10BE5000171C00960222051C1C1CFFF7A5FF0028DA
:10BE600006D10096281C391C1022231CFFF79CFFCA
:10BE7000FEBDF0B500231370037887B0061C0D1CBF
:10BE8000141C002B03D1B378002B47D027E0437854
:10BE90000C201D2B00DD53E16F4616371D23881C37
:10BEA000391C3B80FFF77CFF002800D048E1337845
:10BEB000022B03D13B8809221D2B07D97378002B55
:10BEC00002D008221D2B01D93B880822DBB2591C65
:10BED00029706A70227802329B182370D3E7237886
:10BEE0000C201B2B00DD2BE16F461637381CFFF7AB
:10BEF00055FF002800D023E1237839885A1C22708E
:10BF00000322EA5423785A1C22701922EA54237817
:10BF1000EA1811700233090A51702370B288002A9E
:10BF20001ED0B168002900D109E123780C20991CAA
:10BF30008A181F2A00DD03E15A1C2270B2880132E0
:10BF4000EA5423785A1C22700122EA542078B288DD
:10BF50002818B16802F05AFBB2882378D3182370EE
:10BF6000F368002B12D01A7823780C201C2B00DDEC
:10BF7000E6E0591C21700221E9542378591C2170F4
:10BF80000A21E9542378591C2170EA54338A002B82
:10BF900003D1338B002B16D00AE0301C00941030F4
:10BFA000022106222B1CFFF751FF0028F1D0C7E029
:10BFB000301C00941830032107222B1CFFF746FF8A
:10BFC000002800D0BCE0338C002B0AD0301C009439
:10BFD0002030142115222B1CFFF738FF002800D039
:10BFE000AEE0B36A002B41D022780C2002920632D8
:10BFF0001F2A00D9A4E019880720052900D89FE04E
:10C00000504A8F18504ABFB2974200D898E05A88D9
:10C01000052A00D894E04B4FBF18BFB2BC464A4F28
:10C02000BC4500D88CE0494FB94204D0BA4202D096
:10C03000914200D984E0029A0299013222700522CD
:10C040006A542278511C21701221A9542278188830
:10C05000A9180870000A4870901CC0B22070598856
:10C060002B1819700432090A59702270F76A002FD0
:10C0700028D03A792378911C981CC9B241180C2019
:10C080001F295DDC591C03322170EA5423785A1CA5
:10C090002270FF22EA5423783988EA18023311709B
:10C0A000DBB2090A51702370BA88002A0AD0B96835
:10C0B0000720002944D0E81802F0A8FABA882378AB
:10C0C000D3182370371C343703973B780020834202
:10C0D00036D0316B814232D00290039F3B78029F71
:10C0E000BB422AD9029A0C275743336BDF193A799E
:10C0F00023780332591C2170EA5423785A1C227089
:10C100001622EA5420783A882B1802301A70C0B2EE
:10C11000120A5A702070BA88002A09D0B96800291A
:10C120000DD0281802F072FABA882378D318237039
:10C13000029B0133DBB20293CFE7002000E007202F
:10C1400007B0F0BD7FF3FFFF7DF30000FFFF0000AD
:10C15000F0B593B06D466E460023063507360C1CCD
:10C160002B70337098420BD08388002B01D10720AD
:10C1700024E08368002BFAD01B785A07F7D516E025
:10C18000071C002C03D0A388002BF0D106E0221C52
:10C1900029783378381CFFF7FFFD0FE0321C201C94
:10C1A0000AA9FFF766FE0AAA0028F1D006E002A954
:10C1B0002A1CFFF75EFE02AF0028E2D013B0F0BDEC
:10C1C00075DF704776DF70477ADF70477BDF704737
:10C1D00037B5164C164B2088251C984225D0A378DD
:10C1E000227C0133DBB2A3709A4209D3211C203197
:10C1F000FFF7E6FF002818D0E369002B14D114E004
:10C200000023A370237D002B08D03B21FFF7DAFF2A
:10C21000002803D0E369002B00D09847AB69002BBE
:10C2200003D001A800220270984737BD482500209E
:10C23000FFFF000013B5174C638D228C9A420DD876
:10C24000628C9A420AD3A369002B03D001A8012271
:10C250000270984734340023237013BD231C3433F9
:10C260001B78002B05D0A369002BF3D001A8002276
:10C27000EEE7A378002B01D1A16800E0E168206B14
:10C28000002200F0B1FD0028E4D0E369002BE0D1EA
:10C29000E0E7C0464825002070B5154C021C231D60
:10C2A00062CA62C362CA62C31268251C1A6001684E
:10C2B000231C3433002220351A70281C914212D0DE
:10C2C000082202F0A3F9281CFFF77EFF00280DD1F9
:10C2D000201C01235B420021064A30302380A170DC
:10C2E00000F05CFD02E0FFF771FFEFE770BDC046B4
:10C2F00048250020D1C1010008B5024B186B00F0A1
:10C30000BDFD08BD4825002010B50388112B18D0AD
:10C3100002D8102B05D039E0122B2FD0502B17D07C
:10C3200034E01B4C8388011C201C0E31283008226D
:10C33000238002F06BF90023A370638A002B25D1C0
:10C3400022E0134C01235B4223800023A3700BE007
:10C350000F4CC188628A914218D1C38B022B15D130
:10C360000130C37FDA070FD4206B00F087FD00286F
:10C370000CD0E369002B09D0984707E0811D0448E1
:10C380000822283002F042F9FFF754FF10BDC046E2
:10C390004825002073B5154C011C251C2035281C90
:10C3A000082202F033F9281CFFF70EFF251C061E99
:10C3B00019D1638D228C9A4202D8628C9A420BD298
:10C3C0002B1C291C34330124288820311C70FFF7D2
:10C3D000F7FEAC70061C06E0A369002B03D001A891
:10C3E000012202709847301C76BDC04648250020C7
:10C3F0000B7803704B7843700220704738B5041CEB
:10C40000081C0D1C02F013F96560208038BD000087
:10C41000A0DF7047A2DF7047F0B591B001900F1C0C
:10C42000151C1C1C002904D1081C1A4A6D2101F09E
:10C4300073F8002D04D1281C6E21164A01F06CF807
:10C4400009AE301C00211C2202F0E9F869460122E5
:10C450008A7301996A469181227869460223337072
:10C460000A72627804AC4A728B72201C002114227A
:10C4700002F0D5F802AB6360074B03AA0492188858
:10C48000311C221C169B2581A5812761FFF7C2FF65
:10C4900011B0F0BD58E6010080250020F0B5664DD2
:10C4A00089B0664B05A9041C2A1C012088700B80EA
:10C4B000FFF7AEFF002800D0BBE02288002A03D19E
:10C4C0002289002A17D00AE0AB1C0093231C5C4889
:10C4D00061683C33FFF7A0FF0028F1D0A9E02B1CD6
:10C4E0000A330093231C5748E1683C33FFF794FF5D
:10C4F000002800D09DE0228A002A0BD02B1C12338A
:10C500000093231C504861693C33FFF785FF0028E6
:10C5100000D08EE0228B002A0BD02B1C1A33009304
:10C52000231C4A48E1693C33FFF776FF002800D01E
:10C530007FE0228C002A0AD02B1C22330093231C7C
:10C540004348616A3C33FFF767FF002871D1228DB1
:10C55000002A09D02A35231C00953E48E16A3C3365
:10C56000FFF75AFF002864D1236B002B30D01A68E4
:10C57000FF2559682D02171C2F4003913F0A68467A
:10C5800006A90A704776FF200004171C07403F0CDD
:10C59000BC4666466F46BE76120E6F46039EFA761E
:10C5A00007AA16709B686A461D4053772D0A6A4693
:10C5B000034095771B0C6A46D3771F4B26483233CE
:10C5C0000093231C08223C33FFF726FF002830D1BC
:10C5D000636B002B21D1A06B00282AD0037806A919
:10C5E0000B7043886A4653766A461B0A93768388A3
:10C5F0006A46D37607AA1B0A1370C3886A46537724
:10C600006A461B0A93770C4A231C423200923C3341
:10C6100007221248FFF700FF0BE019681A79064B52
:10C620000F483A330093231C3C33FFF7F5FE0028F4
:10C63000D1D009B0F0BDC046802500200A18000006
:10C64000292A0000242A0000252A0000272A0000A9
:10C65000262A0000282A0000232A0000502A000071
:10C660002A2A000026DF704751DF704710DF70472D
:10C6700011DF704761DF704708B5081C111C00F01E
:10C680004CFF08BDF7B5214D2B78002B3DD06A68D3
:10C6900056425641AA68F6B254425441E4B2002EC2
:10C6A00031D101A8FFF7E0FF05280AD0002804D007
:10C6B0006921174A00F030FF04E001986B68984741
:10C6C00000E00126002C1BD12F69AB8901A9381C81
:10C6D0000B80FFF7CFFF041E052C0BD0002805D0E0
:10C6E00080210B4A00F018FF002404E0381CAA68DF
:10C6F000904700E00124002ED1D0002CCFD004E0E0
:10C70000002E02D1CBE7002CDED0F7BDCC250020D7
:10C710008DE6010038B5051C0720002910D08C07D4
:10C720000ED1084C281C21610749A2816361FFF7E3
:10C730009DFF002804D1012316202370FFF792FFEC
:10C7400038BDC046CC25002079C6010008B5FFF7EA
:10C750008FFF021C531E9A41014BD2B21A7008BDC2
:10C76000CC250020002803D0024B9860002000E078
:10C770000E207047CC250020002803D0024B5860C3
:10C78000002000E00E207047CC25002008B5084BA3
:10C790005B69002B08D09847002807D099214900F1
:10C7A000044A00F0B9FE01E0FFF76CFF08BDC04687
:10C7B000CC2500208DE6010010B543788278013346
:10C7C0009A1A541EA241524213400278934206D054
:10C7D0000B604378182253434068C01800E00020E3
:10C7E00010BD174B02205A68D205D20D26D0103A40
:10C7F000D3B259B200290DDA0F221A40083A114972
:10C80000C24082405218032152680B408B40DA40EC
:10C81000131C08E08908C0310B4B8900CB58032159
:10C820000A408A40D340DBB29B09DBB20020012BD7
:10C8300004D0033B584243410220C01A7047C0460F
:10C8400000ED00E018ED00E000E100E02F23C0461D
:10C85000C046C046C046C046C046C046C046C046A8
:10C86000C046C046C046C046C046013B002BEED184
:10C87000704738B580220C4B9202DA670B4C80234C
:10C88000D2225B029200A350C22292000125A35043
:10C890006560FFF7DBFFA560054C00252560FFF70D
:10C8A000D5FF257138BDC04604E100E0001001400D
:10C8B000E4250020224AF8B50023224C53649364F7
:10C8C000D364136553609360A5686A1C37D01E4A11
:10C8D0001E491F1C8E582268B61A3602360A2423B7
:10C8E0005D43E26853195A68964216D3B61ABF18C8
:10C8F00022691D6A9969DB69002A0AD0081C191C83
:10C900009047002807D06421FF31114A00F004FE4F
:10C9100001E0181C88476B1CE1D1227D637D9342A6
:10C9200005D10133DBB2022B00D100236375637D97
:10C9300080229B00E418074B5203A7615A60F8BDA0
:10C94000FC100140E4250020040500000010014017
:10C95000C6E60100FCE100E0F0B5AE4B8BB01C6810
:10C960001A7D597D0894914212D00132D2B2022A26
:10C9700000D100221A751A7D089D92009A189269BA
:10C980000126029252191202120A1A60039602E05C
:10C990000027029703979C680133DB7F0994059376
:10C9A000013BDBB20693069C9A4AFF2C62D0069D9F
:10C9B000526AEB00D21815780492049F7B78AB4240
:10C9C00056D0049F18226A43049E0135BB78EDB20D
:10C9D0005B1B7668591E8B415B42B2181D40137871
:10C9E000022B05D0032BE8D18A4AD168936834E042
:10C9F00051682422874B4A43DE68B2180792127DA1
:10CA0000002ADAD09B681C1C1F1C601C21D0242229
:10CA10008C4204D06243B218271C146AF5E7A7427F
:10CA200008D15343F3181B6A7A4A9360013301D14A
:10CA3000FFF71FFF2422544357433419236AF71981
:10CA400061683B625C1C04D05343F61877687B181E
:10CA50007360079C00232375AFE75E1C06D024207B
:10CA600043430020CB1818751B6AF6E79360A4E7D0
:10CA7000069B95E7039D9168002D09D1099E891BAE
:10CA80004B1E99410123C9B25B4204919C462FE0A1
:10CA9000D76801235B4203979C4600204B1C23D0A0
:10CAA00024234B43039C029DE3185C68A54205D2F6
:10CAB000641B012691605C60049619E0029F0019D6
:10CAC0003F1B00245C601C751C6902971E6A002CC9
:10CAD00008D0089DDC6047193F023F0A9F60674607
:10CAE0001F628C46311CD9E74A4B0124996004949B
:10CAF0009568566AD7681268069507960297089255
:10CB00002B1C059A013AD2B20592FF2A00D185E08A
:10CB1000059C079DE10069186546013508D0664609
:10CB200024227243029F6046BA18146AA44623E086
:10CB30000A7848789042E4D0182454434D68013272
:10CB40008878D2B22C190A70904201D100220A7062
:10CB5000227860681D1C012A59D124224243029E7A
:10CB6000B218167D002E52D1A7689760E568D5608F
:10CB7000266916616469D461089F9568D468EE1BC4
:10CB8000254F3602360ABE4201D8341908E0089E05
:10CB9000751B2D022D0AAC4201D9641B00E0002454
:10CBA000546000249460D4600124147564421462BB
:10CBB0002424251C4543029F7D195A1C26D05C4322
:10CBC0003C196A686668B24202D903931C1C09E0EA
:10CBD000B21A62602B6219E0366AD21B771C0CD045
:10CBE0000394341C24266643029FBE197768BA4218
:10CBF000F2D8BF1A7760261C039C6A602422624325
:10CC0000029C2E62A21810621D1C00E0051C2B1C49
:10CC100082E7C046E4250020FEFF7F00284D069EE7
:10CC2000AB60B34202D1049F002F46D0581C42D0C3
:10CC300024225343E968234CCB185B682F68029386
:10CC4000214BE6580597F21B1202120A0332049296
:10CC50002A79002A13D18023D1225B029200A350AB
:10CC6000C1229200A350C021184B80229202490099
:10CC700001275A501A602760FFF7E8FD2F71049BC7
:10CC8000029DAB4200D22B1C059FA822DB191B0280
:10CC90001B0AD2000C48A35022589B1B921B120265
:10CCA000120A1B0203321B0A9A4206D98022084B41
:10CCB00092025A6001E0FFF7DCFD0BB0F0BDC04608
:10CCC000E4250020001001400405000000E100E020
:10CCD000FCE100E0F7B5032701900D1C161C1C1C9D
:10CCE0001F400720002F4DD1002B4BD0FFF7C1FD77
:10CCF000254B089ADC601A611A1C28321570221C18
:10CD0000AF4205DA00211170117501372432F7E7BF
:10CD1000242255436419182575435A1C0320D077E3
:10CD2000221C5C621832002101386260217061703F
:10CD3000A670521908348842F5D1012252429A60F5
:10CD40008021124AC0244903640018755875115196
:10CD5000C524A4001559FF26B543C02635431551F7
:10CD60001160019D0A49A124E4000D51C424A400CE
:10CD70001659084D3540C026360235431551064A2E
:10CD80008A581A60FEBDC046E425002000E100E09C
:10CD900000100140FF00FFFF04050000114BF0B53B
:10CDA000DC68002C1AD0002A1AD0002818D02833AA
:10CDB0001F780023BB420FDA251C2434261C243E96
:10CDC0003678002E06D101242C706970AA610360A8
:10CDD000301C06E00133EDE7042002E0082000E00B
:10CDE0000720F0BDE4250020F0B5204E85B001926B
:10CDF000F268051C0C1C002A34D0331C28331B7825
:10CE000007209D422FD204292DD924236B43D31808
:10CE10001A780820012A26D15B78012B01D000273F
:10CE200000E00F1CFFF7DDFC766AC0003618301CEE
:10CE300003A9FFF7C1FC031C0420002B13D001221F
:10CE40001A700B490B4A5D608A58DC609A60019A3F
:10CE50001F615A61039B80227370074B52035A6013
:10CE6000002000E0082005B0F0BDC046E425002009
:10CE70000010014004050000FCE100E037B5154D4D
:10CE8000041CEA68002A22D02B1C283319780723B7
:10CE900088421DD2242343439A5C0823012A17D1D8
:10CEA000FFF79FFC6D6AC0002D18281C01A9FFF731
:10CEB00083FC042300280BD002230370019B4460F1
:10CEC00080226B70044B52035A60002300E0082359
:10CED000181C3EBDE4250020FCE100E037B50F4DF5
:10CEE0000823EA68002A17D0FFF77BFC6C6AC000B1
:10CEF0002418201C01A9FFF75FFC042300280BD095
:10CF00000323037001235B424360019B8022637013
:10CF1000034B52035A600023181C3EBDE425002039
:10CF2000FCE100E0024A034BD35803600020704745
:10CF30000010014004050000411A0902090A0020FE
:10CF40001160704718DF70472DDF704713DF70479F
:10CF5000B024054B6402201C1D68FFF7F7FF23680F
:10CF600083F30888A847FEE704600100F0B58DB0A0
:10CF700000F01EFA00F052FA5E4D01902A782C1C47
:10CF8000002A0DD1A023A221DB05C9005958480071
:10CF900006D5E721C9005A5001F086F901232B700C
:10CFA0006B78012B1FD000F07FFE061E1BD002788D
:10CFB000012A0AD9504B41881940504B994204D15B
:10CFC0006B78002B01D102236B706B78022B07D199
:10CFD000A01CB11C01F01AFB3278E31C013ADA778D
:10CFE000301C00F073FE6B78022B14D000F054FC60
:10CFF000002810D001236B7000F054FC061C32781E
:10D00000A01CB11C01F002FB3278E31C013A301C79
:10D01000DA7700F04DFC3A4AD77FFF2F27D001374F
:10D02000684603AE00230E3036493A1C337001F0D7
:10D03000EDFA3448777000F01DFF002817D1301C3E
:10D0400001F044FA2E48FF23C377301C01F0D8F9D1
:10D0500000280CD03378002B09D176786946321C31
:10D0600028480E3101F0D2FA254A013ED677E61C57
:10D07000F37FA71CFF2B23D06A78022A10D100F07F
:10D080004DFE051E1CD0F27F391C0132023001F02A
:10D09000BDFAF37F281C01332B7000F04FFE0FE028
:10D0A000012A0DD15D1C261C201C24362630391C7B
:10D0B0002A1C01F0ABFA631D301CDD7700F0FEFB8B
:10D0C000FF230334E377104B5A6C002A04D000226C
:10D0D0005A640E4B01221A60019B002B00D147E7D6
:10D0E0000B4B8022D205D15820200143D150FFF7AD
:10D0F0002BFFFEE710260020FFFEFFFFFFFE0000D3
:10D100001326002012260020FC9000400060004002
:10D110001C050000F7B55048FFF714FFDE20400261
:10D12000FFF714FF4D4DA0230122DB055A514C4B54
:10D130008022D205D058862108401C1C111C822850
:10D1400009D0D3585A0606D4B0235B021B680133BA
:10D1500001D0FFF7FDFE0B59424F5A060BD53E1C7E
:10D160005036B123301C40490422337101F04EFA8D
:10D17000301C00F011FE8023DB051A5960218A4320
:10D180001A513A4AA023DB05012199508021A1229E
:10D190000903D200995000203B1C58330090042111
:10D1A0000622FFF797FD002803D08221304A00F0C5
:10D1B000B3F900F0B3F900F045F9002000F0E6F80B
:10D1C0002C492D4AA823DB00CA502C4A2C4B2D4851
:10D1D000CA508024A023DB050122A4015A512A4E03
:10D1E0001C50A225294CED006651C046C046C046E1
:10D1F000274E22606651C046C046C0460A60254997
:10D2000020245A50A121C9005C50E324E4001A51A3
:10D2100040241C50204C1A5180241C50E524E4006A
:10D220001A518024E4005C501C4C1A518024A40341
:10D230001C501B481A50802080055850E720C00021
:10D240001A508022D2015A50EF220420D200985066
:10D250005C50FFF78BFEC04604200020340700001E
:10D260001C05000010260020A40000104C07000040
:10D27000F7E601000090004048E8010090D003006C
:10D28000440500000C050000031F02000060004080
:10D29000030D0300140700001C07000054070000E2
:10D2A000740700000848026803210A430260074926
:10D2B000074A084B9B1A03DD043BC858D050FBDCDF
:10D2C00005488047054800472405004048E701001D
:10D2D000002000202C250020FDD2010021BD0100EE
:10D2E000FEE7FEE7FEE7FEE7FEE7FEE7014A024B48
:10D2F0001A6070470024F400142000201C4B10B565
:10D300001A78181C012A12D11A4B1B6819070ED162
:10D31000194BF0221B68E024191C1140234204D150
:10D32000164B1B68134202D118E03029F8D003785D
:10D33000012B1BD10F4A1268110717D10E4A116831
:10D34000F0221140402911D10C49096811420DD138
:10D35000C1228021D200C9058B5007E00849094A43
:10D3600011608021084A09021160E0E710BDC04643
:10D37000E00F00F0E40F00F0E80F00F0EC0F00F019
:10D38000DFFF07C004050040186C0040064BA022D8
:10D39000D2050C2110B5D150D458C02189022143A7
:10D3A000D150024B187010BD44070000182900200E
:10D3B00070B5194C666800F063F8251C864229D0C8
:10D3C00000F05EF8A022A223217AD205DB00606083
:10D3D000D358002907D19A031CD40123237200F0EB
:10D3E0004FF8E06016E09A0314D50023237200F092
:10D3F00047F8E368C01A2C23FF33984208D800F09E
:10D400003FF8E268801A012802D90123237001E065
:10D4100002232B7070BDC04618290020024B002249
:10D4200018781A707047C04618290020034B1A68F4
:10D4300001321A60024B00225A64704728290020EA
:10D44000FCA000400C4BA22101220420C900DA609C
:10D450005850FA20A8218000C90058508021890026
:10D460005A508020C1214002890058500349802031
:10D47000C00008601A60704700A0004000E100E0B2
:10D48000014B18687047C0462829002073DF704799
:10D490007CDF70477FDF704763DF7047FEE708B5CA
:10D4A0000348FFF7F3FF002800D0FEE708BDC046A1
:10D4B0002C29002010B5041C00F0C2FC201C00F038
:10D4C00063FE10BD10B5041C00F00AF9201CFEF725
:10D4D0001BFF20881038092819D801F051F80516CB
:10D4E0001809181818181813A288094B1A800EE08A
:10D4F000074B084A188800211432FFF7CBFF002899
:10D5000005D0FEE7A379002B01D1FFF7C8FF10BDBE
:10D51000182000202C290020FEE7FEE7F0B5614925
:10D52000002099B01C315022031CFFF7F3F8071EAE
:10D5300000D0FEE704AD2B780126334308AC281C4D
:10D540002B7000F0C5F8201C00F0BCF86378381C84
:10D550009B19211C637000F0B3F85348FFF702F9E0
:10D56000002800D0FEE75148FFF706F9002800D058
:10D57000FEE710273B1C3343281C4D493A1C2B70F7
:10D58000FFF786FF002800D0FEE700F09DF8002896
:10D5900000D0FEE7C821606020234900201C2780BE
:10D5A0006380E18000F092F80190002800D0FEE74F
:10D5B00006236A46D3733F490422281C01F026F84B
:10D5C00001993822201C01F02AF8022323700F232E
:10D5D0006B440199201CA670A680A3602682656119
:10D5E000FEF7B6FD011E00D0FEE714222D4801F023
:10D5F00016F82C49C82252000A822E49281C0431F0
:10D600003A1C01F003F86946281C0F31FFF744FF6C
:10D61000051E00D0FEE76B46D87B00F0C1F8402223
:10D62000291C201C00F0FBFF201C2349FEF7E6FE0E
:10D6300017AB1A780F218A4332430A403A431A70D3
:10D64000201C00225A70FEF729FF011E00D0FEE7C1
:10D65000201C1C2200F0E3FFA0239B026360A36058
:10D6600003232373154B201C2674A361FEF714FEBD
:10D67000002800D0FEE70B4B1E229A829A7D0121E2
:10D680000A43E1210A400C210A4320218A439A756A
:10D690000722DA7510221A76FFF701FF00F0DAFB95
:10D6A00019B0F0BD2C290020C5D40100B5D401006B
:10D6B00016E7010002E7010027E701009DD4010001
:10D6C00070DF704771DF704778DF70477ADF70472F
:10D6D00060DF7047A0DF7047A2DF7047A6DF7047AA
:10D6E00070B50388051C112B05D0502B08D0102BCA
:10D6F00050D1828801E001225242274B1A8049E032
:10D70000264CC2882388861D9A420DD1237A002B8D
:10D710000AD1201C291C0E30328B203100F076FFFC
:10D72000338B237301232372EA88238F9A4231D1EA
:10D73000B37E194A58B2602100280FDA194091705F
:10D740001F2213405A1C201C291C22644430213102
:10D75000132A0FDD132200F059FF1BE090780B40D5
:10D76000984217D1FF239370226C201C291C57303C
:10D77000133A213100F04AFF237A002B0AD1256C9D
:10D78000201C211C0E3044312A1C00F03FFF0123D5
:10D790002573237270BDC0461C20002098290020EC
:10D7A000F0B587B0FF236A46537204A9344B019049
:10D7B00088700A3201200B80FFF78CFF00285DD1B2
:10D7C0000127102303AD3B432B7010233B436B70A9
:10D7D000019B05AE02222B4CAA70B37009222A4B82
:10D7E0006A44338022636B46221C5889211D2032F3
:10D7F000264BA56126622785FFF76EFF00283DD1E5
:10D80000234B019A338009236B4463641F4BB2702E
:10D81000211C6A462880A870A0614831508938339D
:10D820001C4A6663A787FFF757FF002826D10F22FF
:10D8300083B2C0B2904338431040102210431B0AF9
:10D840000F2293433B431340102213436B70022378
:10D85000AB7081239B0033800923019A6B4463647E
:10D860000A4BB270211C6A462870643150896433B7
:10D87000084AA5676663A787FFF72EFF07B0F0BDCC
:10D88000010200001C200020020200009829002054
:10D890000302000050200020014B187A7047C04658
:10D8A0009829002001480C307047C0469829002074
:10D8B000014B00221A72704798290020F0B53A4AAD
:10D8C0008BB012886D4601920378384A019916355B
:10D8D00000902B80914265D0142B01D914232B800A
:10D8E00006AC10220021201C00F099FE304F0123CD
:10D8F000009EA3703B8802360198211C2380E660BD
:10D90000A560FFF7EBFE009A13781422132B00D8C2
:10D910005A1CF96E013B02911F210B4080214942A4
:10D920000B43029906AC480160210840214903439A
:10D930000B700390311C20482A80643700F066FE8B
:10D9400000211022201C00F06AFE3B88194A0126A3
:10D950000198211C2380E260A670A560FFF7BEFE3F
:10D96000009B1A78132A19D9039B1249123A0B709B
:10D97000009992B2153110482A8000F047FE00212C
:10D98000201C102200F04BFE0A493B88E160019800
:10D99000211CA6702380A560FFF7A0FE029A044B0D
:10D9A0000132DA660BB0F0BD1C200020FFFF000042
:10D9B00098290020082A0020092A00200A4A0B4939
:10D9C0000B4B01401040090902010A4309490A486A
:10D9D00011401A4089089300084A0B43184013402D
:10D9E0005B084000184370470F0F0F0FF0F0F0F086
:10D9F00033333333CCCCCCCC55555555AAAAAAAA2F
:10DA000049494A4A0869F0B5131C002800D189E049
:10DA10000020086146490C78081C002C6DD0012CB0
:10DA200000D07FE08021C9005158002901D19460C5
:10DA300078E041682C244C43021C08321419A922B6
:10DA4000D2009A583B4E62623B4A01319F583140A6
:10DA5000A76204D504220139524211430131374AE9
:10DA6000956BA94202D101229A605BE06578D66B82
:10DA70006D07AD0FAC460025664504D1166CF51B4D
:10DA80006F427D41EDB2A46A66461464D6632C4CA5
:10DA9000002D02D0526C1A5120E04160556C111CCF
:10DAA00048318D420DD0556F966FAE4209D0691C3A
:10DAB000204D294004D5042501396D422943013107
:10DAC0005167556F966F111CB54204D02C267543D3
:10DAD0007C31491900E0483119515164802292008B
:10DAE00099580824A14399509958042421439950E6
:10DAF0000022027001221A6114E04C682C2060435D
:10DB00000B1C083318180E4B0424D05080239B00A4
:10DB1000D058A043D050D05808242043D0500123DF
:10DB20000B701361F0BDC046FC10004000100040B7
:10DB30001C2A0020030000800C0400009C2A002006
:10DB400004050000F8B5314C314B0125E550314B4F
:10DB500002221A60304B0027E750A123DB00E75078
:10DB6000A2232E4EDB00E55033792D481843FFF7F2
:10DB700025FF2C4B2C4AE050A523DB00E2507078A7
:10DB8000337800021843B3781B041843F3781B065C
:10DB90001843FFF713FF254B254AE050A423DB0071
:10DBA000E250244B244AE750A623DB00E550234BE8
:10DBB0001021E250224AA323DB00E250214B022233
:10DBC000E250214A214BE250214AA723DB00E250D8
:10DBD000C12308229B00E25080239B00E550E258BD
:10DBE0000A43E250E25804210A43E250E2582A4331
:10DBF000E250184B5A681D70191C2C235A430831E7
:10DC0000154B8A18E2506560F8BDC0460010004010
:10DC1000FC0F000000E100E00C050000A420002043
:10DC200000C2C3C42405000013E363A31C05000065
:10DC3000434343002C0500000600030014050000C8
:10DC40002000040134050000FFFF00003C05000037
:10DC5000211001001C2A002004050000084B0222AC
:10DC6000DA67084BC22208219200995080210022D5
:10DC700089005A500121196103495A507047C04622
:10DC800004E100E000100040FC0F0000044B586865
:10DC9000044B9B6BC01A431E9841C0B27047C046EC
:10DCA0001C2A00209C2A002008B5FFF7EFFF00285F
:10DCB00006D0044B986B2C23434303480830C0180C
:10DCC00008BDC0469C2A00201C2A0020064A074B9B
:10DCD000916B01310B4004D50421013B49420B43B8
:10DCE000013393637047C0469C2A002003000080E4
:10DCF000084A094B916F01310B4004D50421013BC7
:10DD000049420B430133506F1B1A581E8341D8B24E
:10DD10007047C0469C2A00200300008008B5FFF72A
:10DD2000E7FF002806D0044B986F1A1C2C23584399
:10DD30007C32101808BDC0469C2A0020064A074BBA
:10DD4000916F01310B4004D50421013B49420B4343
:10DD5000013393677047C0469C2A0020030000806F
:10DD6000012807D0002803D0022808D1012102E0B1
:10DD7000022100E00021A223014ADB00D1507047BC
:10DD8000001000407D2803D8A123024ADB00D050B8
:10DD90007047C0460010004008B5011C052202482B
:10DDA00000F034FC08BDC046A42000204EDF7047C0
:10DDB00050DF704710B51D4C00232370042832D863
:10DDC00000F0DEFB031814232900194B8021C12227
:10DDD000490292009950A822C821D2009950154BAF
:10DDE000802252001A60FFF7ADFE01E0FFF708FE47
:10DDF000002308E0104A536C012B14D10021516418
:10DE0000FA229200626023700DE0FFF727FF0B4BB0
:10DE100063600323F7E7064AA823DB00D158FA2002
:10DE200080000918D150201C10BDC046C82B00200E
:10DE30000080004000E100E0FC800040AC200020B9
:10DE4000043808B5012802D80148FFF7B1FF08BD22
:10DE5000AC20002008B50348FFF7A8FF0248FFF7F1
:10DE6000A7FF08BDB5DD0100AC20002021DF704711
:10DE700020DF7047F7B5451CEB7F041C023BDBB28B
:10DE8000FC2B00D94CE10378FF2B00D048E143780C
:10DE9000FE2B00D044E18678102E13D104230371A9
:10DEA000012343716F230021C37158234372C17052
:10DEB0008171017281720C220B3000F0B0FBE675AB
:10DEC000162399E0142E1AD107300023EA7F063A70
:10DED000934200D324E12179E6780902A279314303
:10DEE000667989021202591832438A189C498A427B
:10DEF00000DD15E1C65C9B4901338E54E6E7152E23
:10DF000016D1073000232179E6780902A27931433E
:10DF1000667989021202591832438A1890498A4256
:10DF20001DDC90498A5CC2540133192BEBD116E0F9
:10DF30001C2E17D1073000232179E6780902A27937
:10DF40003143667989021202591832438A18864988
:10DF50008A4204DC1278C2540133192BECD1EA7FD7
:10DF60009B1849E0182E3CD1804F3B78002B00D005
:10DF7000D6E0C61CF378B2781B0213431A1C583A39
:10DF8000162A0CD87279317912020A439B186F2B2A
:10DF900005DC7278C37812021A43019204D0002380
:10DFA000E37001237370B9E0311C0622704800F061
:10DFB0002DFB6F486E498378C0787A780002184349
:10DFC0004B78B8601B0213430122FB603A70FFF7E5
:10DFD0004FFF002800D1A3E0019B0120E370707087
:10DFE0009CE0FF2E0AD143700670867061490330B1
:10DFF000062200F00BFB0823EB77AEE0F02E1FD1DA
:10E00000FFF73EFA061CFFF73BFA801B6328FADD98
:10E01000E97F8022D205584B022905D9E1780029F1
:10E0200002D1D158402001E0D15820200143D150E5
:10E03000BFF34F8F514A524BDA60BFF34F8FFEE769
:10E04000162E6DD1DC267602301C192100F068FAFC
:10E0500032780123CF2A5CD1B269110A327F1206CD
:10E060000A43904255D17068317A030A0906194370
:10E070000DD03279F37812021A439202F820561822
:10E0800002234002864244D83E48824241DDDC23DE
:10E090005B021869020A187D000610430DD01A7C35
:10E0A000DE7B120232439202F82610180323760216
:10E0B000B0422ED8334882422BDD002908D1DC261D
:10E0C000760231690B0A317D0906194311D012E03D
:10E0D000DC26760232681002000C800200F020FA82
:10E0E000B168327B0B0A12061A430423904210D106
:10E0F000E5E700230DE0F2681002000C800200F05A
:10E100000FFA73691A0A337E1B0613439842F0D044
:10E110000523DBB223715A425341E37004236BE7BA
:10E12000EB7F0020FF2B19D0104B1A78032A0AD05E
:10E130000020042A12D11821A1701969E070217100
:10E140001870EA7709E01822A27001200022042149
:10E15000E07022711A70E97700E00120FEBDC04630
:10E16000FF030000BC200020FFBB0100D02B0020DB
:10E17000D12B0020A40000101C0500000400FA05AB
:10E1800000ED00E0FF0F000070B5051E022D40D12C
:10E19000304C2378012B02D0022B1BD059E0A06811
:10E1A000631C0130A060DA78997812020A43597929
:10E1B0001E79090231435118884202DAFFF758FEEE
:10E1C00042E05978607809020143A260E16025705D
:10E1D000900211E02279E5781202A3792A43657949
:10E1E000A068E1681B022B4301300131D318A06005
:10E1F000E16098420BDA8002174B0903802259181C
:10E200005200FFF733FE032300281BD121E0032334
:10E210001EE003281DD10F4C2378012B0CD0022BBC
:10E2200017D1A2680C499002E26813038022C91832
:10E230005200FFF71BFE07E0A068FFF719FE002859
:10E2400007D00223236102E0002802D025610423C5
:10E25000237070BDD02B0020BC2000200F4B104835
:10E26000196870B54A1C0025C5607F2A00DC151CA2
:10E270005E68A3200B4CC000B54205D122581A722B
:10E28000DA680132DA6007E0205859181A60087419
:10E290007F2A01DD00221A6070BDC046E42B0020F9
:10E2A000FC200040002000401A4BA022D205D0588C
:10E2B000194930B50140D150A3248023A121C900C0
:10E2C000E4009B05135115485350154B1D251D5057
:10E2D00014488025ED05155013481E251D5080203B
:10E2E000C001105150500E225A50104901225A506C
:10E2F00080200F4940055850A0200421C00019502B
:10E300000C489A600160C120800019501A600A4BC5
:10E310001A7430BD74070000FFF8FFFF0C05000001
:10E32000002000401C050000140500006C050000E2
:10E330002405000000E100E0642C0020064B1B7C5B
:10E34000002B08D0054B064AD050064B1A6A002A0B
:10E35000FBD000221A627047642C00201C050000CC
:10E3600000200040FC200040064B10B51B7C041C24
:10E37000002B06D02078002803D00134FFF7DEFF01
:10E38000F8E710BD642C002038B5074B1B7C002B30
:10E3900008D0041C4518AC4204D02078FFF7CEFF0B
:10E3A0000134F8E738BDC046642C0020064B00203D
:10E3B0001B7C834206D0054B18685B68C01A431E5D
:10E3C0009841C0B27047C046642C0020E42B002066
:10E3D000094B00201B7C83420CD0084B5A681968FB
:10E3E000914207D0511C9A185960107C7F2901DD99
:10E3F00000225A607047C046642C0020E42B0020A5
:10E4000038B5314C00232278051C4370072A01D10E
:10E4100023706360FFF7CAFF00284FD02378072BD3
:10E420004CD0FFF7D5FF031C20780628F2D800F067
:10E43000A7F80408130E21343B00BC3B5A42534159
:10E4400038E00022CF2B00D103222270E2E72B70AC
:10E450002372637202232DE0227A617A9A18D2B273
:10E460002272521862720022E3606260934212D0FC
:10E4700004231FE062681F2A08DCA9188B70217A28
:10E480005B18617ADBB223725B186372E368013256
:10E4900062609A42BEDB05230CE0227A9A4201D1E7
:10E4A000062307E0002305E0627A9A4204D1E3687C
:10E4B0006B7007232370ADE70023A9E720780738A6
:10E4C00043425841C0B238BD7C2C0020F8B5041C32
:10E4D0001248FFF749FF2078FFF730FF6078277870
:10E4E000FFF72CFF6578261C7D19EDB2EF19FFB2FE
:10E4F0006278331B934209DAB078FFF71FFFB378D5
:10E500000136ED18EDB2EF19FFB2F1E7281CFFF765
:10E5100015FF381CFFF712FF0120F8BD30E701009E
:10E52000F0B50123021C5B42141A8C421ADA1678E9
:10E530000724002501273E4201D0A7403D4376082D
:10E54000013CF7D22D066B4008245D00002B02DA57
:10E550000A4B6B4000E02B1C013CE4B2002CF4D1D0
:10E560000132E1E71F22002001210B4201D091403E
:10E5700008435B08013AF7D2C043F0BDB71DC104A0
:10E5800002B4714649084900095C49008E4402BC46
:10E590007047C046084B10B5041C002B02D0002168
:10E5A00000E000BF054B1868836A002B00D0984735
:10E5B000201C00F043F8C0460000000038E70100CE
:10E5C00070B50E4B0E4D0024ED1AAD101E1CAC4262
:10E5D00004D0A300F35898470134F8E700F030F86E
:10E5E000084B094D0024ED1AAD101E1CAC4204D09E
:10E5F000A300F35898470134F8E770BD20250020A8
:10E6000020250020202500202425002010B50023EF
:10E61000934203D0CC5CC4540133F9E710BD031C12
:10E620008218934202D019700133FAE77047002331
:10E63000C25C0133002AFBD1581E7047FEE7C0467A
:10E64000F8B5C046F8BC08BC9E467047F8B5C04651
:10E65000F8BC08BC9E4670476E726635315F7364C5
:10E660006B2F6E726635313832322F536F7572638D
:10E67000652F626C652F626C655F73657276696386
:10E6800065732F626C655F6469732E63006E7266DA
:10E6900035315F73646B2F6E726635313832322FCD
:10E6A000536F757263652F73645F636F6D6D6F6E0B
:10E6B0002F736F66746465766963655F68616E6405
:10E6C0006C65722E63006E726635315F73646B2FFA
:10E6D0006E726635313832322F536F757263652F23
:10E6E0006170705F636F6D6D6F6E2F6170705F74BE
:10E6F000696D65722E63007372632F6D61696E2E92
:10E7000063000A180100089A0AC0B7437B949E4F21
:10E710007F1C000000004372617A79666C69652095
:10E720004C6F61646572004269746372617A65005E
:10E73000BCCF004300000000BC240020000000000B
:08E74000E0D5FF7F010000009D
:10E7480000000000020000000000000000000000BF
:10E75800000000000024F400FFFF0000FFFFFF009E
:10E768001A00000000000000000000000000000087
:10E778000000000000000000000000000000000091
:10E788009F20002001000000200000000000000081
:10E79800000000009C200020010000002000000074
:10E7A800000000000C000000000000000000000055
:10E7B8000000000000000000000000000000000051
:10E7C800120000000000000000000000000000002F
:10E7D80000000000000000000000000011110311FB
:10E7E80011030000E7E7E7E7E7000000000000008A
:10E7F80000010000E803000040420F004200000052
:10E808000000000000000000000000000000000000
:10E8180000000000000000000000000000000000F0
:10E8280000000000000000000000000000000000E0
:10E8380000000000000000000000000000000000D0
:10EC180000000000000000000000000033E70100D1
:10EC280000000000000000000000000000000000DC
:10EC380000000000000000000000000000000000CC
:10EC480000000000000000000000000000000000BC
:10EC5800000000000000000000000000BC240020AC
:0CEC6800E9BC0100C1BC0100000000007C
:040000031000D2A572
:00000001FF
