:020000021000EC
:10F0000000400020D1F701000DF801000FF80100C9
:10F0100000000000000000000000000000000000F0
:10F0200000000000000000000000000011F80100D6
:10F03000000000000000000013F8010015F80100B6
:10F04000F0B55F4656464D464446F0B4002900DC14
:10F05000B9E00918884601222021022452420123E6
:10F060008C4610270826A3462CE0584C4A00251C45
:10F070005540002963DB554C5100251C4D40002AAA
:10F0800064DB524C4A00251C5540002965DB4F4C7F
:10F090005100251C4D40002A66DB4C4C4A00251CC3
:10F0A0005540002967DB494C5100251C4D40002A82
:10F0B00068DB464C4A00251C5540002969DB0130BD
:10F0C00040456AD001781D1C0D404C08E9012342DF
:10F0D00003D04021002D00D0C021654664080D43B7
:10F0E000234200D0291C0D1C64083D43234200D05C
:10F0F000291C0D1C64083543234200D0291C04251B
:10F1000064080D43234200D0291C5D4664080D436A
:10F11000234200D0291C0D1C1D43640800D0291C6B
:10F1200009062A4C4A405100251C4D40002A9CDA11
:10F13000264C291C4A00251C554000299BDA234CEB
:10F140002A1C5100251C4D40002A9ADA1F4C291C0C
:10F150004A00251C5540002999DA1C4C2A1C5100F4
:10F16000251C4D40002A98DA184C291C4A00251C01
:10F170005540002997DA154C2A1C5100251C4D409A
:10F18000002A96DA114C291C4A00251C55400029FA
:10F1900095DA01302A1C404594D11F230021012417
:10F1A000201C9840051C0D43081C144200D0281C4C
:10F1B000011C5208013BF3D2C0433CBC9046994627
:10F1C000A246AB46F0BD01225242E6E7B71DC1049C
:10F1D0000E490F4AA823DB00F0B5CA50A022520006
:10F1E00000238B50A024012380250A48CB608C4645
:10F1F0000B60171C0026E405AD018B58002BFCD0DA
:10F200006346DE5123586B402350F6E700900040E0
:10F210006A1800000405000008B50849084B0122DF
:10F220001B684A6007494A605A1C04D01A6882F376
:10F2300008885B689847FFF7CBFFC0460080004016
:10F24000801000100090004018DF70471B4B1B78A7
:10F25000012B00D070471A4B1B681A07FAD1194AC4
:10F26000F02312681A4003D0102A01D0302A03D1AB
:10F27000154A12681A4210D0124AF02312681A4036
:10F28000402AE7D1104A12681A42E3D1C1238022F2
:10F290000121DB00D205D150DCE70C4A0C4B1A608F
:10F2A0000C4B802212021A60044B1B78012BD1D127
:10F2B000034B1B681A07DFD0CCE7C046E00F00F015
:10F2C000E40F00F0E80F00F0EC0F00F0DFFF07C0E4
:10F2D00004050040186C0040F8B54D4644465F46B2
:10F2E0005646F0B4D54C03232370D5498022C02361
:10F2F000D205DB00D150D34B0021D150D248A023FE
:10F30000DB05012119508025A120AD01C0001D5051
:10F31000E520C00019508025CC48ED001D50CC4898
:10F320000C251D50802311605B00D1580029FCD0B2
:10F33000C84BA221A125ED00C900072602225E507C
:10F34000C5485A51A822D2009850A022002052004D
:10F350009850C24FC24A9F50A22252009850012298
:10F36000DA601A60BF4B5E505851802080001A50FE
:10F37000BD4B1D6880231B059D4276D8BB4BAD0A53
:10F380001D60A023DB055B585B0C1A4000D1227086
:10F39000A223DB00994680239B02A020A02298464E
:10F3A000C005B04B5200AB49AC461FE09F58002F40
:10F3B00006D0AF4E9D5085598027BF017D408551B5
:10F3C0008D58002D0CD0AB4EA827B2460025FE006C
:10F3D00057468D509F5101279D50DF601F60277059
:10F3E000A2277F00CE599B4D002E40D14E46855915
:10F3F000A0274646FF053540D8D09F4B8022D20536
:10F40000D15806208143D150D05880212678084316
:10F410000321314049000143D15023786546022B36
:10F4200000D17EE0954F1921ED19AD02281CFFF7A0
:10F4300007FE2B78CF2B2BD0FFF7EEFE013B9B0A6C
:10F4400001331B02F361286803021B0C9B027361EA
:10F450002B79EA781B021343301C9B021030B361F6
:10F46000FFF7F2FE002800D135E1FFF7B1FE0026DC
:10F47000EE51834FA826BB46F7005E46DE510027BB
:10F480009F500127DF601F606F6002252570ADE788
:10F49000A9692B7F0A0A1B0613439842CCD16A68DC
:10F4A0002F7A130A3F061F430CD02B79EA781B02F0
:10F4B00013439B02F822D91952029142BCD8714AD7
:10F4C0009342B9DD2B69287D994606061B0A8046C2
:10F4D0001E430CD02B7CEA7B1B0213439B02F822B9
:10F4E000991952029142A7D8664A9342A4DD002F8F
:10F4F00000D054E1002E00D027E1002F00D034E1ED
:10F500004E464746330A3A06134300D0C6E05E4BE8
:10F51000574A02219950A121C9005D5000219950FC
:10F520008AE75A4B0122FA50A123DB002021F9502F
:10F53000E321C9007A504549402078508021C90014
:10F54000F950EB21C9007A508021C903F950504885
:10F55000444BA821C9005850A02149000020585010
:10F56000DA601A605A58002AFCD0A0223D495200A5
:10F570008858A0253B4B6D000028F9D04049A822AF
:10F58000D200995000225A51002601228021DA60CF
:10F59000B0461A608901A022A2278026344CD205E9
:10F5A0008C46FF00B6025959002905D040465851F3
:10F5B0001159604641401151D059A021C905304030
:10F5C000F1D1224B8022D203324CCA5001220A517F
:10F5D0008024A403CC50234B2D4CA821C9005C509F
:10F5E000A02149005850DA601A605A58002AFCD00D
:10F5F000A0231C485B00C458A0221A495200002CCA
:10F60000F9D0244BA0240C20E405E0502248A82384
:10F61000DB00C85000238B50802501231448CB60A9
:10F620008C460B60171C0026AD018B58002BFCD0BC
:10F630006346DE5123586B402350F6E7202000201C
:10F640000100008004060000340700000C050000E3
:10F6500044070000008000406CDC0200688909005B
:10F66000440500000090004080100010242000207D
:10F670000405000048E801001C050000FFFF3F00F2
:10F68000127A0000FF0F000000E0014014070000A4
:10F690006A180000540700003E4900000133484E3C
:10F6A0009B080133F360EF68301C3B021B0C9B028C
:10F6B00073602B7CEA7B1B0213439B02B360FFF752
:10F6C000C3FD0E2800D022E76F682B7A3A0A1B068A
:10F6D000134300D0B2E629692B7D0A0A1B061343A7
:10F6E00016D0013B9B0A01331B02F361EA68301C10
:10F6F00013021B0C9B0273612B7CEA7B1B021343DE
:10F700009B021030B361FFF79FFD002800D0ACE6EC
:10F710002C4B2D4A02219950A121C9005D50002196
:10F720009950012323708022284BD205D1580620FE
:10F730008143D150D05880212478084303212140AF
:10F7400049000143D150FFF767FDE9680802000C4A
:10F750008002311CFFF774FC6B691A0A2B7E1B06B2
:10F760001343984200D067E6C7E67B1E144E9B0801
:10F770000133F360286803021B0C9B0273602B7932
:10F78000EA781B0213439B02301CB360FFF75CFD59
:10F790000E2899D029692A7D89469046B0E62968C5
:10F7A0000802000C8002391CFFF74AFCAB681A0AF9
:10F7B0002B7B1B061343984200D03DE69AE6C046D9
:10F7C0000020002000E00140040500001C050000AE
:10F7D0000848026803210A4302600749074A084BA8
:10F7E0009B1A03DD043BC858D050FBDC054880471A
:10F7F000054800472405004020F8010000200020B3
:10F80000242000204DF20100D9F20100FEE7FEE7BE
:08F81000FEE7FEE7FEE7FEE75C
:08F81800B8FFFF7F01000000B2
:10F8200003000000000000000000000000000000D5
:10F8300001000000000000000000000000000000C7
:04F8400003000000C1
:040000031000F7D121
:00000001FF
