:020000021000EC
:10F000000040002079F70100B5F70100B7F70100D3
:10F0100000000000000000000000000000000000F0
:10F02000000000000000000000000000B9F701002F
:10F030000000000000000000BBF70100BDF7010068
:10F04000F0B55F4656464D464446F0B4002900DC14
:10F05000ACE020238B4601249946103B9846083BA0
:10F060008344644201259C460427022625E0514C36
:10F0700053005C40002A5CDB4E4C5A005440002B8D
:10F080005DDB4C4C53005C40002A5EDB494C5A006F
:10F090005440002B5FDB474C53005C40002A60DB90
:10F0A000444C5A005440002B61DB424B54006340F7
:10F0B000002A62DB0130584563D0291C02781140D8
:10F0C0005208CB01154203D04023002900D08033E1
:10F0D000494652081943154200D00B1C41465208BC
:10F0E0001943154200D00B1C6146520819431542C2
:10F0F00000D00B1C191C52083943154200D00B1CC0
:10F10000191C52083143154200D00B1C191C52081F
:10F110002943002A00D00B1C1B065C40254B6200D3
:10F120005340002CA3DA1A1C224C53005C40002AE6
:10F13000A2DA231C1F4C5A005440002BA1DA221CD7
:10F140001C4C53005C40002AA0DA231C194C5A00C6
:10F150005440002B9FDA221C164C53005C40002ABE
:10F160009EDA231C134C5A005440002B9DDA221CBB
:10F17000104B54006340002A9CDA01301C1C584597
:10F180009BD11F23002101252A1C9A40081C0A43F9
:10F19000254200D0101C011C6408013BF4D2C0437E
:10F1A0003CBC90469946A246AB46F0BD0124644261
:10F1B000E7E7C046B71DC104A8230E4A0E49DB008D
:10F1C000F0B5D150A02100234900A0248025944609
:10F1D0000F1C0026535009480133D360E405136027
:10F1E000AD015358002BFCD06346DE5123586B40D1
:10F1F0002350F6E7009000406A1800000405000064
:10F2000018DF70471F4B1B78012B00D070471E4B37
:10F210001B681B07FAD1F0221C4B1B68134018D146
:10F220001B4B1B6813421AD0174B1B681B07EDD1F1
:10F23000F022164B1B681340402BE7D1144B1B6880
:10F240001342E3D1C12380220121DB00D205D1503A
:10F25000DCE7102B0FD10E4B1B681342E8D10D4A8F
:10F260000D4B1A6080220D4B12021A60054B1B7861
:10F27000012BD9D0CAE7302BDAD1054B1B681342DA
:10F28000D6D1ECE7E00F00F0E40F00F0E80F00F05B
:10F29000EC0F00F0DFFF07C004050040186C0040D1
:10F2A000F0B503234D4644465F465646D649F0B472
:10F2B000C0220B70802301208024DB05D2009850EF
:10F2C000D24A24069C50A022D14CD2051051802550
:10F2D000A124AD01E4001551E5248025E40010517E
:10F2E000CC4CED0015510C25CB4C83B01551802230
:10F2F0001860520098580028FCD0A222A1250726A9
:10F300000220C64BD200ED009E505851A820C44C9C
:10F31000C0001C50A024002064001851C14FC24CF2
:10F320001F51A22464001851443CFF3CDC601C6067
:10F33000BE4B9E505851802080001C508020BC4BFA
:10F3400000051B6883426CD8BA489B0A0360A02062
:10F35000C0058258520C224000D10A70A222D2006D
:10F3600091468022A025A02092029046ED05AF4A4A
:10F370004000AA4C9C461FE01758002F07D080275A
:10F380001350AD4BBF01EB58AB4E7B40AB512358F4
:10F39000002B0CD0A94F0023BA46A8275646FF00E1
:10F3A0002350D65113500133D36013600B70A22643
:10F3B0007600A759002F36D14B46A0274646EB587A
:10F3C000FF053340D8D0802606209D4DF6057259A2
:10F3D00063468243725180220878745914437D3AFF
:10F3E00002405200224372510A78022A00D17DE085
:10F3F000944A1921944663449C02201CFFF720FE86
:10F400002378CF2B21D001228449894B1B684A6085
:10F4100086494A605A1C04D01A6882F308885B68DF
:10F420009847FFF7C9FE00277C4B9F51864EB34695
:10F43000A8265B46F6009351784B17500137D760EA
:10F4400017605F6002230B70B6E7A3691A0A237F77
:10F450001B0613439842D6D16368267A1B0A3606E8
:10F460001E4300D143E12379E2781B021343F822C3
:10F470009B02991952029142C5D8744A9342C2DD47
:10F48000227D256917062B0A90461F4300D1E9E02B
:10F49000237CE27B1B021343F8229B02F9185202E1
:10F4A0009142B0D8694A9342ADDD002E00D0FDE014
:10F4B000E368391C1802000C8002FFF7C1FD636984
:10F4C0001A0A237E1B06134398429CD143462D0AF9
:10F4D0001B061D4300D013E102215D4B564A995093
:10F4E000A121C9005C50002199508CE70121594BA2
:10F4F0002022F950A123DB00FA50E3224020D20061
:10F50000B950444AB8500D3AFF3AFA50EB22D200B3
:10F51000B9508022D203FA50A822444B4E48D20060
:10F520009850A022002052009850D9601960995834
:10F530000029FCD0A0213D484900A02344583B4A63
:10F540005B00002CF9D0A8213F48C9005050002191
:10F55000D1500131D16080201160002180018846A6
:10F56000A227A02180268446334CC905FF00B6029D
:10F57000D058002805D040466546D050085968400C
:10F580000851A025C859ED053040F1D18022012154
:10F59000204BD203EA50314A2F4CA95080229203CB
:10F5A000EA50A822214BD2009C50A0225200985031
:10F5B000D960196099580029FCD0A0231B485B0032
:10F5C000A021C458194A4900002CF9D0A0200C24CD
:10F5D000224BC005C450A823214CDB00D45000238B
:10F5E000802594460F1C00265350134C0133D360E2
:10F5F000AD0113605358002BFCD06346DE51035914
:10F600006B400351F6E7C0461020002004060000BE
:10F61000340700000C050000440700000080004093
:10F620006CDC02006889090044050000009000407D
:10F6300080100010142000200405000048E801009C
:10F640001C050000FFFF3F00127A0000FF0F0000C2
:10F6500000E00140140700006A1800005407000091
:10F660003E4900002368311C1D022D0CAD02281CF0
:10F67000FFF7E6FCA3681A0A237B1B061343984294
:10F6800000D0C0E6731E39489B080133C360456053
:10F690002379E2781B0213439B028360FFF7B0FDDE
:10F6A0000E2842D0237D256998460FE72368311C38
:10F6B0001D02280C8002FFF7C3FCA3681A0A237BF3
:10F6C0001B061343984200D09DE6E368391C1802DC
:10F6D000000C8002FFF7B4FC63691A0A237E1B0644
:10F6E0001343984200D08EE62D0CAD02CAE7227D6E
:10F6F000256917062B0A90461F4300D1ECE6C7E6A2
:10F700006B1C1A489B080133C360E3681B021B0C87
:10F710009B024360237CE27B1B0213439B028360BA
:10F72000FFF76EFD0E2800D0D6E6A024A12680208B
:10F7300000210F4A0F4DE405F6008001A051019110
:10F74000019B934205DC019B01330193019B934292
:10F75000F9DD60510191019B9342EFDC019B013384
:10F760000193019B9342F9DDE8E7C04600200020A9
:10F770009F8601000C0500000848026803210A4327
:10F7800002600749074A084B9B1A03DD043BC8582F
:10F79000D050FBDC05488047054800472405004061
:10F7A000C8F70100002000201420002005F201000D
:10F7B000A1F20100FEE7FEE7FEE7FEE7FEE7FEE757
:08F7C000B8FFFF7F010000000B
:10F7C800030000000000000000000000000000002E
:04F7D800030000002A
:040000031000F77979
:00000001FF
